:100000000C946A0D0C949B0D0C949B0D0C949B0D01
:100010000C949B0D0C949B0D0C949B0D0C949B0DC0
:100020000C949B0D0C949B0D0C949B0D0C949B0DB0
:100030000C949B0D0C949B0D0C949B0D0C949B0DA0
:100040000C949B0D0C94AB6D0C949B0D0C949B0D20
:100050000C949B0D0C949B0D0C94116C0C94C76B21
:100060000C949B0D0C9446760C949B0D0C949B0D5C
:100070000C949B0D0C949B0D0C949B0D0C949B0D60
:100080000C949B0D0C949B0D0C949B0D0C949B0D50
:100090000C949B0D0C949B0D0C949B0D0C949B0D40
:1000A0000C949B0D0C949B0D0C949B0D0C949B0D30
:1000B0000C949B0D0C949B0D0C949B0D0C949B0D20
:1000C0000C949B0D0C949B0D0C949B0D0C949B0D10
:1000D0000C949B0D0C949B0D0C949B0D0C949B0D00
:1000E0000C949B0D084AD73B3BCE016E84BCBFFDF0
:1000F000C12F3D6C74319ABD56833DDA3D00C77FF8
:1001000011BED9E4BB4C3E916BAAAABE0000008090
:100110003F05A84CCDB2D44EB93836A9020C50B91F
:10012000918688083CA6AAAA2ABE000000803F004B
:100130000C94003A0C94280F0C948A100C94936D34
:100140000C94310F0C94906D0C9411100C944A6D1A
:100150000C94A66D0C94320F0C94240F0C94060F83
:100160000C941A0F0C942D100C94F5390C94251046
:100170000C94F70E0C94FB0E0C94996D0C94B539FD
:100180000C94100F0C9480100C943D6D0C9449103D
:100190000C94360F0C94F10E0C94966D0C94FF0E8B
:1001A0000C9407100C94AB390C946B6C0C941E0FD0
:1001B0000C94160F0C946C100C9494100C94858D68
:1001C0000C9453100C942C0F0C9402100C94FA0FF6
:1001D0000C9476100C948D6D0C942E3A0C940C0F9C
:1001E0000C94726D0C9435100C94226D0C9462106A
:1001F0000C94030F0C949C6D0C943F100C94656D43
:100200000C941B104E414E494E495459494E46CD0F
:10021000CCCC3D0AD7233C17B7D13877CC2B3295BD
:1002200095E6241FB14F0A000020410000C842009B
:10023000401C4620BCBE4CCA1B0E5AAEC59D741055
:1002400000C90210012C014001220170011801B007
:10025000010E01F00104015002FA00B002F000307A
:1002600003E600D003DC009004D2007005C800A0B3
:1002700006BE000008B400B009AA00D00BA00060C0
:100280000E960060118C000015820020197800C0C5
:100290001D6E00A0226400B0275A00902C50000070
:1002A000314600E0343C0010383200903A280060BB
:1002B0003C1E00A03D1400803E0A00203F00004389
:1002C0004F4D4D554E49434154494F4E00445259AC
:1002D00052554E004552524F525300494E464F0020
:1002E0004543484F002200656E7175657565696EFE
:1002F000672022002020506C616E6E657242756628
:1003000066657242797465733A20002046726565AD
:10031000204D656D6F72793A20004175672033304A
:10032000203230323200436F6D70696C65643A2060
:100330000028416C657068204F626A6563747320A1
:10034000496E632E2C204C756C7A426F74204D6977
:100350006E692900207C20417574686F723A200014
:100360005445535400204C6173742055706461747B
:1003700065643A20002054455354004D61726C6905
:100380006E0020536F6674776172652052657365E5
:100390007400205761746368646F672052657365E9
:1003A00074002042726F776E206F757420526573EF
:1003B0006574002045787465726E616C20526573B7
:1003C000657400506F776572557000737461727454
:1003D000005072696E7465722073746F707065641A
:1003E0002064756520746F206572726F72732E20A1
:1003F00046697820746865206572726F7220616E3C
:100400006420757365204D39393920746F20726509
:1004100073746172742E202854656D7065726174F6
:100420007572652069732072657365742E2053653B
:1004300074206974206166746572207265737461DA
:100440007274696E6729004E6F204C696E65204E8C
:10045000756D626572207769746820636865636B87
:1004600073756D2C204C617374204C696E653A2055
:10047000004E6F20436865636B73756D20776974F8
:1004800068206C696E65206E756D6265722C204CFB
:10049000617374204C696E653A2000636865636B14
:1004A00073756D206D69736D617463682C204C6188
:1004B0007374204C696E653A20004C696E65204E5D
:1004C000756D626572206973206E6F74204C617364
:1004D00074204C696E65204E756D6265722B312CEF
:1004E000204C617374204C696E653A20004D3131A7
:1004F000300020496E76616C69642065787472758D
:10050000646572200000002F4300003F4300001F7D
:100510004300000000000020C1000000C0576172CD
:100520006E696E673A20486F6D696E672042756D1F
:10053000702044697669736F72203C2031005265E7
:10054000776970696E6700205A3A200020593A2076
:100550000042656420583A2000486F6D6520582F8E
:1005600059206265666F7265205A0020706F73694A
:1005700074696F6E206F7574206F662072616E678C
:10058000652E003F50726F62652000202B00200A0C
:10059000436F7272656374656420426564204865C8
:1005A000696768742076732E2042656420546F70EA
:1005B0006F6C6F67793A200A00202B002028302CBE
:1005C00030290A002020204F2D2D2046524F4E5416
:1005D000202D2D2B0A002020207C202020202020D0
:1005E00020202020207C0A002020207C2020202089
:1005F000282D29202020207C20540A002054207CF3
:1006000020202020202020202020207C20480A009C
:100610002046207C20282D29204E20282B29207C94
:1006200020470A002045207C202020202020202058
:100630002020207C20490A00204C207C20202020E3
:10064000282B29202020207C20520A002020207CDA
:1006500020202020202020202020207C0A00202074
:10066000202B2D2D2D204241434B202D2D2B0A00D8
:10067000200A4265642048656967687420546F7079
:100680006F6772617068793A200A004D65616E206B
:100690006F662073616D706C656420706F696E7435
:1006A000733A200020643A200020623A200045710D
:1006B0006E20636F656666696369656E74733A2060
:1006C000613A200050524F4245204641494C204358
:1006D0004C45414E204E4F5A5A4C45002842296104
:1006E000636B00284629726F6E740028522969676F
:1006F000687400284C29656674003F4E756D62650C
:1007000072206F662070726F626564202850296FB6
:10071000696E747320697320696D706C617573699B
:10072000626C65202832206D696E696D756D292EA9
:100730000A0052756E6E696E6720696E20445259C8
:100740002D52554E206D6F6465004732392041753A
:10075000746F20426564204C6576656C696E670A2B
:10076000003F2856296572626F7365204C65766577
:100770006C20697320696D706C61757369626C655A
:100780002028302D34292E005374616E6461726408
:1007900020446576696174696F6E3A20004D656129
:1007A0006E3A20002020207369676D613A20002096
:1007B0006D65616E3A20002020207A3A2000206F7B
:1007C00066200020207A3A2000793A2000783A20EA
:1007D00000202020616E676C653A200053746172BE
:1007E00074696E67207261646975733A2000506F96
:1007F000736974696F6E696E6720746865207072C2
:100800006F62652E2E2E0A003F4E756D6265722056
:100810006F66206C65677320696E206D6F76656DFD
:10082000656E74206E6F7420706C61757369626C94
:10083000652028302D3135292E0A00590058003FF7
:1008400053616D706C652073697A65206E6F7420DA
:10085000706C61757369626C652028342D353029A0
:100860002E0A004D3438205A2D50726F6265205286
:1008700065706561746162696C697479207465730F
:10088000740A003F566572626F7365204C65766529
:100890006C206E6F7420706C61757369626C65207A
:1008A00028302D34292E0A0020403A002042403AB8
:1008B00000202F0020423A00202F0020543A002030
:1008C0005A3A0020593A0020436F756E7420583A06
:1008D000200020453A00205A3A0020593A00583A60
:1008E000007A5F6D61783A20007A5F6D696E3A2018
:1008F00000795F6D61783A2000795F6D696E3A200A
:1009000000785F6D61783A2000785F6D696E3A20FB
:1009100000526573656E643A20006F6B0048656134
:1009200074696E67206661696C656400486561740E
:10093000696E67206661696C656400486561746909
:100940006E67206661696C65640048656174696EF4
:1009500067206661696C656400525862756620663E
:10096000756C6C000000A0400000A040000000403A
:100970004572726F722077726974696E6720746F46
:1009800020454550524F4D210020627974657329EE
:100990000053657474696E67732053746F72656475
:1009A00020280020627974657329002073746F72A7
:1009B00065642073657474696E6773207265747200
:1009C000696576656420280048617264636F6465B8
:1009D000642044656661756C742053657474696E37
:1009E0006773204C6F616465640020204D38353199
:1009F000205A005A2D50726F6265204F66667365EB
:100A00007420286D6D293A0020204D32303020446A
:100A1000300020204D323030204400204469736182
:100A2000626C65640046696C616D656E7420736507
:100A30007474696E67733A002044002049002020D6
:100A40004D333034205000204C002043002044001F
:100A500020490020204D333031205000504944209F
:100A600073657474696E67733A00205A00205900E8
:100A700020204D323036205800486F6D65206F665B
:100A80006673657420286D6D293A00204500205A50
:100A90000020580020420020540020204D323035E4
:100AA000205300416476616E6365642076617269EB
:100AB00061626C65733A20533D4D696E20666565D1
:100AC000647261746520286D6D2F73292C20543D4C
:100AD0004D696E2074726176656C2066656564721E
:100AE00061746520286D6D2F73292C20423D6D693E
:100AF0006E696D756D207365676D656E74207469C0
:100B00006D6520286D73292C20583D6D6178696DC5
:100B1000756D205859206A65726B20286D6D2F7392
:100B2000292C20205A3D6D6178696D756D205A2001
:100B30006A65726B20286D6D2F73292C2020453D2E
:100B40006D6178696D756D2045206A65726B20282E
:100B50006D6D2F73290020540020520020204D324B
:100B60003034205000416363656C65726174696F55
:100B70006E733A20503D7072696E74696E672C20F6
:100B8000523D7265747261637420616E6420543DDD
:100B900074726176656C00204500205A002059006F
:100BA00020204D3230312058004D6178696D756DCF
:100BB00020416363656C65726174696F6E20286D96
:100BC0006D2F7332293A00204500205A0020590029
:100BD00020204D3230332058004D6178696D756D9D
:100BE0002066656564726174657320286D6D2F736E
:100BF000293A00204500205A0020590020204D3974
:100C00003220580053746570732070657220756EC1
:100C100069743A0020746F6F206C6F6E672065787E
:100C200074727573696F6E2070726576656E746527
:100C3000640020636F6C6420657874727573696FEB
:100C40006E2070726576656E7465640024F4D4302D
:100C500050C38E20C2A24017828B7011127A910D60
:100C6000816CD90AA861E108C7586607615143063B
:100C70001E4B5D05C145A7041A411104093D9803A7
:100C8000713931034036DB0265339102D4305402AE
:100C9000802E1D02632CEE01752AC501B028A0012B
:100CA000102781018F2564012B244B01E0223401A0
:100CB000AC211F018D200D01801FFC00841EED0062
:100CC000971DDF00B81CD200E61BC600201BBC002D
:100CD000641AB200B219A8000A19A0006A18990093
:100CE000D117910040178B00B516840031167E0095
:100CF000B31579003A157300C7146F0058146A00D1
:100D0000EE1366008813630025135E00C7125B00B4
:100D10006C12570015125400C111510070114F0090
:100D200021114B00D61049008D1047004610440099
:100D300002104200C00F4000800F3E00420F3C00F6
:100D4000060F3B00CB0E3800930E37005C0E3500CB
:100D5000270E3400F30D3200C10D3100900D30002C
:100D6000600D2E00320D2D00050D2C00D90C2B002E
:100D7000AE0C2900850C29005C0C2700350C2700DF
:100D80000E0C2600E80B2400C40B2400A00B23004B
:100D90007D0B23005A0B2100390B2100180B20007A
:100DA000F80A1F00D90A1E00BB0A1E009D0A1D007A
:100DB000800A1D00630A1C00470A1B002C0A1B0046
:100DC000110A1A00F7091A00DD091900C4091900EF
:100DD000AB091900920917007B0918006309170075
:100DE0004C09160036091600200916000A091500DC
:100DF000F5081500E0081400CC081400B808140029
:100E0000A4081400900813007D0812006B0813005A
:100E10005808120046081200340811002308110077
:100E20001208110001081100F0071000E00710007F
:100E3000D0071000C0071000B0070F00A107100076
:100E400091070E0083070F0074070F0065070E005F
:100E500057070E0049070E003B070D002E070E0036
:100E600020070D0013070D0006070D00F9060C0002
:100E7000ED060D00E0060C00D4060C00C8060C00C0
:100E8000BC060C00B0060C00A4060B0099060C0072
:100E90008D060B0082060B0077060B006C060B001C
:100EA00061060A0057060B004C060A0042060A00BB
:100EB00038060A002E060A0024060A001A060A004E
:100EC0001006090007060A00FD050900F4050900DF
:100ED000EB050900E2050900D9050900D005090064
:100EE000C7050900BE050900B5050800AD050800E5
:100EF000A50509009C050800940508008C0508005C
:100F0000840508007C050800740508006C050700CE
:100F1000650508005D050700560508004E05070039
:100F200047050700400508003805070031050700A0
:100F30002A050700230507001C0506001605070003
:100F40000F0507000805060002050700FB04060060
:100F5000F5040700EE040600E8040600E2040700BA
:100F6000DB040600D5040600CF040600C904060011
:100F7000C3040600BD040600B7040600B104050062
:100F8000AC040600A6040600A00405009B040600AD
:100F900095040500900406008A04050085040500F8
:100FA000800406007A04050075040500700405003D
:100FB0006B04050066040500610405005C0405007F
:100FC00057040500520405004D04050048040500BF
:100FD000430405003E0404003A04050035040500FE
:100FE000300404002C040500270404002304050039
:100FF0001E0404001A040400160405001104040071
:101000000D040400090405000404040000040400A5
:10101000FC030400F8030400F4030400F0030400DC
:10102000EC030400E8030400E4030400E00304000C
:10103000DC030400D8030400D4030400D00304003C
:10104000CC030400C8030300C503030024F404D93F
:10105000201BC40C5C0E9804C4095F026507710173
:10106000F405F900FB04B30048048700C1036900DC
:101070005803550003034500BE023A0084023100C4
:1010800053022A002902250004022000E4011C006A
:10109000C8011900AF011700980114008401130062
:1010A000710110006101100051010E0043010D009B
:1010B00036010B002B010B0020010B00150109006C
:1010C0000C01090003010800FB000800F300080000
:1010D000EB000700E4000600DE000600D800060072
:1010E000D2000600CC000500C7000500C2000500C4
:1010F000BD000400B9000400B5000400B100040004
:10110000AD000400A9000400A5000300A200030034
:101110009F0004009B00030098000300950002005C
:1011200093000300900003008D0002008B00030079
:101130008800020086000200840003008100020093
:101140007F0002007D0002007B00020079000200A7
:1011500077000100760002007400020072000100B6
:10116000710002006F0002006D0001006C000200BF
:101170006A000100690002006700010066000100CA
:1011800065000100640002006200010061000100CE
:10119000600001005F0002005D0001005C000100D2
:1011A0005B0001005A0001005900010058000100D5
:1011B00057000100560001005500010054000100D5
:1011C00053000000530001005200010051000100D3
:1011D000500001004F0001004E0000004E000100D1
:1011E0004D0001004C0001004B0000004B000100CD
:1011F0004A000100490001004800000048000100C9
:1012000047000100460000004600010045000000C4
:1012100045000100440001004300000043000100BC
:1012200042000000420001004100000041000100B6
:10123000400001003F0000003F0001003E000000B0
:101240003E0001003D0000003D0001003C000000A8
:101250003C0000003C0001003B0000003B0001009E
:101260003A0000003A000100390000003900010096
:10127000380000003800000038000100370000008E
:101280003700010036000000360000003600010083
:10129000350000003500000035000100340000007A
:1012A000340000003400010033000000330000006F
:1012B0003300010032000000320000003200010063
:1012C000310000003100000031000100300000005A
:1012D00030000000300001002F0000002F0000004F
:1012E0002F0000002F0001002E0000002E00000043
:1012F0002E0001002D0000002D0000002D00000038
:101300002D0001002C0000002C0000002C0000002B
:101310002C0001002B0000002B0000002B0000001F
:101320002B0001002A0000002A0000002A00000013
:101330002A00010029000000290000002900000007
:1013400029000000290001002800000028000000FA
:1013500028000000280000002800010027000000ED
:1013600027000000270000002700000027000100E0
:1013700026000000260000002600000026000000D5
:1013800026000100250000002500000025000000C7
:1013900025000000250000002500010024000000B9
:1013A00024000000240000002400000024000100AC
:1013B00023000000230000002300000023000000A1
:1013C0002300000023000000230001002200000091
:1013D0002200000022000000220000002200000085
:1013E0002200010021000000210000002100000077
:1013F0002100000021000000210000002100010068
:10140000200000002000000020000000200000005C
:10141000200000002000000020000000200001004B
:101420001F0000001F0000001F0000001F00000040
:101430001F0000001F0000001F0001001E00000030
:101440001E0000001E0000001E00000045303A2073
:10145000005A3A2000593A2000583A20004D5331A2
:101460002C4D53322050696E730A004B64200023C8
:10147000646566696E65202044454641554C545F5D
:10148000004B69200023646566696E652020444531
:101490004641554C545F004B7020002364656669DB
:1014A0006E65202044454641554C545F00504944E8
:1014B000204175746F74756E652066696E69736816
:1014C0006564212050757420746865206C617374A4
:1014D000204B702C204B6920616E64204B6420638C
:1014E0006F6E7374616E74732066726F6D206265C7
:1014F0006C6F7720696E746F20436F6E66696775D5
:10150000726174696F6E2E68005049442041757491
:101510006F74756E65206661696C656421207469FD
:101520006D656F757400504944204175746F747512
:101530006E65206661696C6564212054656D706517
:1015400072617475726520746F6F206869676800D6
:10155000204B643A2000204B693A2000204B703A1F
:10156000200020436C61737369632050494420005C
:101570002054753A2000204B753A2000206D617888
:101580003A2000206D696E3A200020643A20002045
:10159000626961733A2000626564002C207379737C
:1015A00074656D2073746F70706564212048656187
:1015B0007465725F49443A20001000AD0330016A3F
:1015C0000150022B0170030A019004F500B005E5FB
:1015D00000D006D800F007CE001009C500300ABEC2
:1015E00000500BB700700CB100900DAB00B00EA610
:1015F00000D00FA200F0109D00101299003013953A
:10160000005014920070158E0090168B00B0178752
:1016100000D0188400F0198100101B7E00301C7B64
:1016200000501D7900701E7600901F7300B020706E
:1016300000D0216E00F0226B001024690030256676
:1016400000502663007027610090285E00B0295C7E
:1016500000D02A5900F02B5600102D5400302E5186
:1016600000502F4E0070304B0090314800B0324592
:1016700000D0334200F0343E0010363B00303737A4
:10168000005038330070392E00903A2900B03B23C7
:1016900000D03C1B00F03D1100103F0100F03F0066
:1016A000004572723A204D415854454D50004D410D
:1016B0005854454D502074726967676572656400BF
:1016C0004572723A204D494E54454D50004D494E99
:1016D00054454D50207472696767657265640045B2
:1016E00072723A204D494E54454D502042454400B7
:1016F0004D494E54454D5020747269676765726557
:1017000064004572723A204D415854454D50204274
:101710004544004D415854454D50207472696767E7
:10172000657265640020746F6F206C6F6E67206552
:101730007874727573696F6E2070726576656E74F9
:1017400065640020636F6C642065787472757369DA
:101750006F6E2070726576656E7465640000002F90
:10176000430000494300002143FF0101205A3A2071
:101770000020593A200042656420583A200025692B
:10178000206D696E2C20256920736563006F666685
:1017900000E002DB02D402CD02BF024445425547BD
:1017A0003A006F6B003F0020573A003F0020573A45
:1017B000004649524D574152455F4E414D453A4DC5
:1017C00061726C696E205445535420534F555243F7
:1017D000455F434F44455F55524C3A68747470738B
:1017E0003A2F2F6769746875622E636F6D2F4D6194
:1017F000726C696E4669726D776172652F4D6172A8
:101800006C696E2050524F544F434F4C5F564552B7
:1018100053494F4E3A312E30204D414348494E45B1
:101820005F545950453A4C756C7A426F74204D693B
:101830006E692045585452554445525F434F554EAA
:10184000543A3120555549443A33353134383762AA
:10185000362D636139612D346331612D383736356A
:101860002D6436363862316461363538350A0053B6
:10187000657474696E672054726176656C2041638B
:1018800063656C65726174696F6E3A2000536574AC
:1018900074696E672052657472616374204163637A
:1018A000656C65726174696F6E3A2000536574747B
:1018B000696E67205072696E7420416363656C6560
:1018C000726174696F6E3A200053657474696E6753
:1018D000205072696E7420616E6420547261766566
:1018E0006C20416363656C65726174696F6E3A2048
:1018F00000546F6F206661722066726F6D20726592
:10190000666572656E636520706F696E74000000B5
:10191000000000003F4300001F433A20007A5F6D43
:1019200061783A20007A5F6D696E3A20005A204F44
:10193000666673657400220A00556E6B6E6F776E73
:1019400020636F6D6D616E643A202200205A3A0068
:1019500020593A0020583A00656E6473746F7073B2
:10196000206869743A20006563686F3A00000021BE
:1019700000240027002A002D003000330001010060
:1019800000040107010A0100002200250028002BA5
:10199000002E003100340002010000050108010B97
:1019A00001000020002300260029002C002F003217
:1019B00000000100000301060109010505050507F6
:1019C0000508080808020202020A0A0808040404BA
:1019D00004010101010101010103030303030303E6
:1019E00003040707070C0C0C0C0C0C0C0C02020275
:1019F0000206060606060606060B0B0B0B0B0B0B68
:101A00000B01021020200808102040102040800206
:101A10000102010804020101020408102040808034
:101A200040201008040201800402018040201008B8
:101A30000402010804020101020408102040800190
:101A40000204081020408000000A0B02090C0D0E51
:101A5000080703040100000000000000000000006F
:101A60000000000000000000000000000000000076
:101A70000000001211100000000000000000000033
:101A80000000000000000000000000000054484575
:101A9000524D414C2052554E4157415900546865B2
:101AA000726D616C204572726F72005072696E7453
:101AB00065722068616C7465642E206B696C6C289B
:101AC000292063616C6C656421004572726F723A03
:101AD0000000858D11241FBECFEFD1E2DEBFCDBF48
:101AE00000E00CBF14E0A0E0B2E0EAE8F3E301E0BC
:101AF0000BBF02C007900D92A434B107D9F720E1C3
:101B0000A4E4B4E001C01D92AF3AB207E1F71DE0D2
:101B1000CAE6DDE000E006C021970109802FFE0142
:101B20000E94AC95C936D10780E00807A9F70E944A
:101B300032780C94C3990C9400008FB7F89490916C
:101B4000A8102091A710921769F0E92FF0E0E95D45
:101B5000FF4E208130E09F5F9F779093A8108FBF4A
:101B6000C90108952FEF3FEFFACFE7E6F2E080E0FA
:101B700090E0A0E8BFE380839183A283B3831482C3
:101B80001582168217821086118612861386148695
:101B9000158616861786808B918BA28BB38B148A41
:101BA000158A168A178A108E118E128E138E148E35
:101BB000158E168E178E80A391A3A2A3B3A30895AA
:101BC0002F923F924F925F926F927F928F929F924D
:101BD000AF92BF92CF92DF92EF92FF920F931F933B
:101BE000CF93DF9300D000D01F921F92CDB7DEB706
:101BF000181619060CF0BEC049016A017B011C01D0
:101C000020E030E0A901CB01B6010E9400928823B8
:101C100009F4B0C09101237033273C832B83580112
:101C20009A82898218861F828B819C81EF81F88538
:101C30008E179F0709F077C09F01220F331F220FD5
:101C4000331F020F131F820E931E8F8198858215FA
:101C500093050CF08FC0F4012081318142815381C2
:101C6000C701B6010E94988D9B01AC01F80160810B
:101C70007181828193810E94D095F8016083718384
:101C800082839383F4012481358146815781C70182
:101C9000B6010E94988D9B01AC01F80164817581A9
:101CA000868197810E94D095F8016483758386832D
:101CB0009783F4012085318542855385C701B6019C
:101CC0000E94988D9B01AC01F80160857185828529
:101CD00093850E94D095F8016087718782879387EA
:101CE000F4012485358546855785C701B6010E94D4
:101CF000988D9B01AC01F801648575858685978573
:101D00000E94D095F80164877587868797872F8111
:101D100038852C5F3F4F38872F83005F1F4F30E19E
:101D2000830E911C92CFF50141905190619071907A
:101D30005F01E981FA812191319141915191FA83B9
:101D4000E983C50104979E838D83C701B6010E9474
:101D5000988DA30192010E94D095ED81FE81608350
:101D60007183828393832F8138852F5F3F4F38871C
:101D70002F835ACF28960FB6F894DEBF0FBECDBF83
:101D8000DF91CF911F910F91FF90EF90DF90CF9057
:101D9000BF90AF909F908F907F906F905F904F908B
:101DA0003F902F9008958150823108F05AC0E82F5B
:101DB000F0E08827E152F14F8F4F0C94AC95FF0E65
:101DC000030FF10EF70EFB0E310F060F0C0F100F65
:101DD000160F1A0F1E0F240F280F310F2C0F320F62
:101DE000360F809180008F778093800008958091D6
:101DF00080008F7DF9CF80918000877FF5CF84B5FB
:101E00008F7784BD089584B58F7DFBCF8091B0001E
:101E10008F778093B00008958091B0008F7DF9CFC7
:101E2000809190008F77809390000895809190002A
:101E30008F7DF9CF80919000877FF5CF8091A000B2
:101E40008F778093A00008958091A0008F7DF9CFB7
:101E50008091A000877FF5CF809120018F778093BC
:101E600020010895809120018F7DF9CF809120017C
:101E7000877FF5CFCF93DF93282F30E0F901E95B1F
:101E8000F54E8491F901EF5FF54ED491F901E554D7
:101E9000F64EC491CC23A1F081110E94D30EEC2FF9
:101EA000F0E0EE0FFF1FEF55F64EA591B491EC91C7
:101EB000ED2381E090E009F480E0DF91CF91089577
:101EC00080E090E0FACF1F93CF93DF93282F30E08C
:101ED000F901E95BF54E8491F901EF5FF54ED4917C
:101EE000F901E554F64EC491CC23A9F0162F8111C7
:101EF0000E94D30EEC2FF0E0EE0FFF1FE957F64ED5
:101F0000A591B4918FB7F894EC91111108C0D095B8
:101F1000DE23DC938FBFDF91CF911F910895DE2BDD
:101F2000F8CFCF93DF9390E0FC01EF5FF54E249163
:101F30008554964EFC0184918823D1F090E0880F5F
:101F4000991FFC01E359F64EA591B491FC01E957A4
:101F5000F64EC591D49161110EC09FB7F8948C9143
:101F6000E22FE0958E238C932881E223E8839FBFA4
:101F7000DF91CF9108958FB7F894EC91E22BEC9319
:101F80008FBFF6CF1F93CF93DF93182FEB0161E044
:101F90000E94910F209739F460E0812FDF91CF915B
:101FA0001F910C94630FCF3FD10511F461E0F5CF81
:101FB000E12FF0E0E95BF54EE491E150E23108F009
:101FC000B3C0F0E08827E851F04F8F4F0C94AC95E8
:101FD000FA0F0210071011101B10941025102D106D
:101FE00035103F104910531062106C109410761089
:101FF00080108A1084B5806884BDC7BDDF91CF9101
:102000001F91089584B5806284BDC8BDF7CF8091CB
:102010008000806880938000D0938900C0938800FE
:10202000EDCF80918000806280938000D0938B0000
:10203000C0938A00E3CF8091800088608093800005
:10204000D0938D00C0938C00D9CF8091B000806870
:102050008093B000C093B300D1CF8091B000806274
:102060008093B000C093B400C9CF80919000806885
:1020700080939000D0939900C0939800BFCF809137
:102080009000806280939000D0939B00C0939A0050
:10209000B5CF80919000886080939000D0939D0090
:1020A000C0939C00ABCF8091A00080688093A0007B
:1020B0008091A0008F7B8093A000D093A900C09353
:1020C000A8009CCF8091A00080628093A000D09354
:1020D000AB00C093AA0092CF8091A000886080934B
:1020E000A000D093AD00C093AC0088CF80912001B8
:1020F000806880932001D0932901C09328017ECF6E
:1021000080912001806280932001D0932B01C093A5
:102110002A0174CF80912001886080932001D093A0
:102120002D01C0932C016ACFC038D1050CF03ECFF1
:1021300033CF3FB7F8948091BB0F9091BC0FA09123
:10214000BD0FB091BE0F26B5A89B05C02F3F19F05B
:102150000196A11DB11D3FBFBA2FA92F982F882727
:10216000BC01CD01620F711D811D911D42E0660F02
:10217000771F881F991F4A95D1F708958F929F92D4
:10218000AF92BF92CF92DF92EF92FF924B015C0130
:102190000E9499106B017C010E9499106C197D09B5
:1021A0008E099F09683E734081059105A8F321E0DF
:1021B000821A9108A108B10888EEC80E83E0D81EE3
:1021C000E11CF11C81149104A104B10429F7FF90D2
:1021D000EF90DF90CF90BF90AF909F908F90089539
:1021E0002FB7F8946091B70F7091B80F8091B90F25
:1021F0009091BA0F2FBF089580911B1090911C10E1
:10220000019771F410921C1010921B100E94F01094
:1022100060932310709324108093251090932610C0
:1022200008950F931F9380911B1090911C10813083
:102230009105B1F10297B9F56091231070912410C6
:10224000809125109091261000911F101091201060
:102250002091211030912210601B710B820B930B87
:1022600028EE33E040E050E00E94359580911D104B
:1022700090911E10280F391F30931E1020931D10AF
:1022800081E090E090931C1080931B100E94F0104E
:1022900060931F1070932010809321109093221050
:1022A0001F910F91089510921F10109220101092FC
:1022B00021101092221010922310109224101092CC
:1022C00025101092261010921E1010921D10D8CFBB
:1022D000CF93C42F67FD07C08130B1F070F082301A
:1022E000D9F0833009F1C7FD0DC0813091F020F1A4
:1022F0008230B9F0833031F41CC088E20E94630F51
:10230000C7FF1AC0CF91089585E40E94630FC7FDEF
:10231000F9CF6C2F87E212C084E40E94630FC7FDDF
:10232000F1CF6C2F83E40AC081E40E94630FC7FDE4
:10233000E9CF6C2F82E402C06C2F89E2CF910C941C
:10234000630F4F925F926F927F928F929F92AF92A4
:10235000BF92CF92DF92EF92FF92CF93DF9300D0A4
:1023600000D01F921F92CDB7DEB72496AEADBFADA1
:1023700024978D919D910D90BC91A02D89839A8376
:10238000AB83BC832296EEADFFAD2297C080D18097
:10239000E280F380AEADBFAD8D909D90AD90BC90CE
:1023A0002E8D3F8D48A159A1C501B4010E94988D81
:1023B0002B013C012AA53BA54CA55DA5C701B60193
:1023C0000E94988D9B01AC01C301B2010E94D0957F
:1023D0002B013C012EA93FA948AD59AD69817A81F5
:1023E0008B819C810E94988D9B01AC01C301B2013D
:1023F0000E94D0956D837E838F8398872AA13BA10D
:102400004CA15DA1C501B4010E94988D2B013C0136
:102410002EA53FA548A959A9C701B6010E94988DCC
:102420009B01AC01C301B2010E94D0952B013C017C
:102430002AAD3BAD4CAD5DAD69817A818B819C81CC
:102440000E94988D9B01AC01C301B2010E94D095FE
:102450002B013C012A8D3B8D4C8D5D8DC501B40156
:102460000E94988D4B015C012EA13FA148A559A562
:10247000C701B6010E94988D9B01AC01C501B40152
:102480000E94D0956B017C012AA93BA94CA95DA9AA
:1024900069817A818B819C810E94988D9B01AC011E
:1024A000C701B6010E94D095EEADFFAD6083718388
:1024B000828393838D819E81AF81B8852296EEAD14
:1024C000FFAD229780839183A283B3832496AEAD20
:1024D000BFAD24974D925D926D927C921397289692
:1024E0000FB6F894DEBF0FBECDBFDF91CF91FF9046
:1024F000EF90DF90CF90BF90AF909F908F907F90A4
:102500006F905F904F9008954F925F926F927F927D
:10251000AF92BF92CF92DF92EF92FF920F931F93F1
:10252000CF93DF9324E030E041E050E0D901A15C9B
:10253000BD4FFD0165917491861797070CF066C039
:1025400041505109440F551F440F551FEA01CF5BFD
:10255000DD4FFE0105911491415C5D4FFA016591DB
:102560007491F901EF5BFD4FE590F490FE01C59089
:10257000D490FD01C591D491FA01A590B490861B29
:10258000970BBC01990F880B990B0E9407922B01A6
:102590003C01B7016C197D09072E000C880B990BC3
:1025A0000E9407929B01AC01C301B2010E94988D69
:1025B0006B017C01BE016A197B09072E000C880B98
:1025C000990B0E9407929B01AC01C701B6010E94C2
:1025D000CA966B017C01B801110F880B990B0E9400
:1025E00007929B01AC01C701B6010E94D095DF9113
:1025F000CF911F910F91FF90EF90DF90CF90BF9000
:10260000AF907F906F905F904F9008954F5F5F4FB6
:102610002C5F3F4F2038310509F088CFEDEBF2E019
:1026200065917491072E000C880B990B0E940792FC
:10263000DECFCF92DF92EF92FF92C090600BD090EE
:10264000610BE090620BF090630B6091640B7091F2
:10265000650B072E000C880B990B0E94079220E057
:1026600030E040E051E40E94CF95A70196010E941E
:10267000309818160CF520E030E040E050E4C70137
:10268000B6010E94D0950E943C977093F00A609327
:10269000EF0A0E94F010605A75418F4F9F4F609370
:1026A000EB0A7093EC0A8093ED0A9093EE0AFF9088
:1026B000EF90DF90CF9008951092EB0A1092EC0A01
:1026C0001092ED0A1092EE0AF2CFCF92DF92EF92C3
:1026D000FF920F931F93CF93DF93EC019927FC0197
:1026E000EE0FFF1FEE0FFF1FE95BF44FC080D1809C
:1026F000E280F380880F991FFC01E95AF44F608152
:102700007181072E000C880B990B0E94079220E024
:1027100030E040E551E40E94CF95A70196010E9468
:1027200030988E01000F111F000F111F181634F57D
:10273000CC0FDD1FC751D54F20E030E040E050E422
:10274000C701B6010E94D0950E943C9779836883A7
:102750000E94F010F801EB51F54F605E714B8F4F06
:102760009F4F6083718382839383DF91CF911F9109
:102770000F91FF90EF90DF90CF900895F801EB510B
:10278000F54F1082118212821382EFCF1092580BF4
:102790001092570B90E080E00E9465131092650B39
:1027A0001092640B0E9419130E94FC1090E080E0CC
:1027B0000E9465131092180B75981092650B109279
:1027C000640B1092160BA59808954F925F926F922A
:1027D0007F92AF92BF92CF92DF92EF92FF920F93D0
:1027E0001F93CF93DF9324E030E041E050E0D90124
:1027F000A754BA4EFD0165917491861797070CF0A6
:1028000066C041505109440F551F440F551FEA013E
:10281000C554DA4EFE010591149147545A4EFA01FF
:1028200065917491F901E554FA4EE590F490FE013A
:10283000C590D490FD01C591D491FA01A590B490B2
:10284000861B970BBC01990F880B990B0E9407926E
:102850002B013C01B7016C197D09072E000C880B78
:10286000990B0E9407929B01AC01C301B2010E9427
:10287000988D6B017C01BE016A197B09072E000C43
:10288000880B990B0E9407929B01AC01C701B6010E
:102890000E94CA966B017C01B801110F880B990B3D
:1028A0000E9407929B01AC01C701B6010E94D0951E
:1028B000DF91CF911F910F91FF90EF90DF90CF901C
:1028C000BF90AF907F906F905F904F9008954F5F53
:1028D0005F4F2C5F3F4F283E310509F088CFEFE96D
:1028E000F6E165917491072E000C880B990B0E94FC
:1028F0000792DECF20911C0230911D0240911E02F2
:1029000050911F0260E070E08FE793E40E94CA9646
:102910006093E00A7093E10A8093E20A9093E30ADD
:102920001092DC0A1092DD0A1092DE0A1092DF0A81
:1029300020913A0230913B0240913C0250913D027D
:1029400060E070E08FE793E40E94CA966093D80A33
:102950007093D90A8093DA0A9093DB0A0895643061
:1029600081F030F4613049F040E0623069F0089560
:10297000683049F0603139F0089540E060E00C942F
:10298000681141E0FBCF41E061E0F9CFCF93DF93E5
:102990002FB7F894EC01CC0FDD1FCC0FDD1FFE012B
:1029A000E154F04F60817181828193812FBF0E9439
:1029B0000792CD5FDF4E288139814A815B810E9479
:1029C000CA96DF91CF910895809107069FB780FF47
:1029D00038C0F89480910B018D7F80930B019FBFCD
:1029E0008FEF80930F02809107069FB781FF32C05F
:1029F000F89480910B01816080930B019FBF8FEF52
:102A000080931002809107069FB782FF2CC0F89434
:102A100080910B018B7F80930B019FBF8FEF809381
:102A20001102809107069FB783FF26C0F89480911A
:102A30000B01806480930B019FBF8FEF8093120284
:102A40000895F89480910B01826080930B019FBFE1
:102A500081E0C7CFF89480910B018E7F80930B01AA
:102A60009FBF81E0CDCFF89480910B01846080936B
:102A70000B019FBF81E0D3CFF89480910B018F7B36
:102A800080930B019FBF81E0D9CF6F927F928F928D
:102A90009F92AF92BF92CF92DF92EF92FF920F93ED
:102AA0001F93CF93DF938C019B013A0163E070E0A9
:102AB0000E949895E901D30150E040E08417950702
:102AC00009F04EC0CA01880F991F880F991FD901BC
:102AD000A80FB91FF301E80FF91F401751070CF0B9
:102AE0005AC0CD90DD90ED90FC901397808091803E
:102AF000A280B3808D929D92AD92BC921397C082BA
:102B0000D182E282F3821496CD90DD90ED90FC901C
:102B1000179784809580A680B78014968D929D9299
:102B2000AD92BC921797C482D582E682F78218963E
:102B3000CD90DD90ED90FC901B9780849184A284D1
:102B4000B38418968D929D92AD92BC921B97C086CD
:102B5000D186E286F3864D5F5F4F1C963C96BDCFD3
:102B6000C990D990E990F9908D909D90AD90BD90CD
:102B7000BE0164507109FB0180829182A282B382FE
:102B8000BD0164507109FB01C082D182E282F382EF
:102B90004F5F5F4F93CFDF91CF911F910F91FF90C8
:102BA000EF90DF90CF90BF90AF909F908F907F90ED
:102BB0006F9008952F923F924F925F926F927F9203
:102BC0008F929F92AF92BF92CF92DF92EF92FF923D
:102BD0000F931F93CF93DF9300D01F92CDB7DEB733
:102BE0001C018B015A0165E070E00E9498959C835E
:102BF0008B834C011A8309836501412C512C3201CE
:102C0000F12CE12C2B813C81E216F3060CF486C0FA
:102C1000C901880F991F880F991FF801E80FF91F44
:102C2000FA83E983A80EB91E821493040CF092C0B3
:102C3000F5012081318142815381E981FA816081EE
:102C40007181828193810E94988D6B017C01F501D5
:102C50002481358146815781E981FA8164817581BA
:102C6000868197810E94988D9B01AC01C701B601B6
:102C70000E94D0956B017C01F5012085318542854C
:102C80005385E981FA8160857185828593850E94EB
:102C9000988D9B01AC01C701B6010E94D0956B01D4
:102CA0007C01F5012485358546855785E981FA81C2
:102CB00064857585868597850E94988D9B01AC01FA
:102CC000C701B6010E94D0956B017C01F5012089F6
:102CD000318942895389E981FA81608971898289C0
:102CE00093890E94988D9B01AC01C701B6010E9497
:102CF000D0959B01AC01C301B2010E94D0952B017C
:102D00003C01F5E08F0E911C29813A812C5E3F4FEA
:102D10003A83298334E1A30EB11C86CFE981FA817D
:102D20006191719181919191FA83E983F6012191E9
:102D30003191419151916F010E94988D9B01AC019D
:102D4000C301B2010E94D0952B013C01FFEFEF1AA5
:102D5000FF0A58CFC301B2010F900F900F900F9050
:102D6000DF91CF911F910F91FF90EF90DF90CF9067
:102D7000BF90AF909F908F907F906F905F904F909B
:102D80003F902F9008958F929F92AF92BF92EF92B3
:102D9000FF920F931F93CF93DF93C0E8DBE083E0B4
:102DA000E82E80E1F82E0FE61BE069917991899178
:102DB0009991F70181909190A190B1907F010E942B
:102DC0000592A50194010E94988D0E944397F801F5
:102DD00061937193819391938F01FBE0C039DF0779
:102DE00021F7DF91CF911F910F91FF90EF90BF904E
:102DF000AF909F908F900895CF92DF92EF92FF92C5
:102E0000C0902E02D0902F02E0903002F09031025C
:102E100080917F0B882391F120E030E0A901C70168
:102E2000B6010E940092882349F120E030E040E0A2
:102E30005FE3C701B6010E94988D6B017C012BED09
:102E40003FE049E450E40E94988DA70196010E945A
:102E5000988D9B01AC0160E070E080E89FE30E94E8
:102E6000CA9660930B0270930C0280930D029093AC
:102E70000E02FF90EF90DF90CF90089560E070E039
:102E800080E89FE3EECFAF92BF92CF92DF92EF92B6
:102E9000FF920F931F93CF93DF93CDB7DEB7E097E9
:102EA0000FB6F894DEBF0FBECDBF80E1EFE8F2E0D1
:102EB000DE01119601900D928A95E1F780E1EFE92C
:102EC000F2E0DE01519601900D928A95E1F780E1E2
:102ED000EFEAF2E0DE01919601900D928A95E1F71A
:102EE000CE0101965C0163E070E1DE01519640E99C
:102EF0005BE09E012F5D3F4F80E89BE08D01F50177
:102F0000C190D190E190F1905F01FB01C192D1920B
:102F1000E192F192BF01CD90DD90ED90FD90FA012C
:102F2000C192D192E192F192AF01F901C190D19099
:102F3000E190F1909F01FC01C192D192E192F19256
:102F4000CF01A016B106D9F60E94C31680E090E02A
:102F5000AAEFB4E48093A80B9093A90BA093AA0BBB
:102F6000B093AB0B40E050E86BE375E44093A00BEB
:102F70005093A10B6093A20B7093A30B8093A40BAF
:102F80009093A50BA093A60BB093A70B1092C00B28
:102F90001092C10B1092C20B1092C30B80E29EE400
:102FA000A0E0B0E08093B80B9093B90BA093BA0B5C
:102FB000B093BB0B1092BC0B1092BD0B1092BE0BCA
:102FC0001092BF0B80E090E0A0E4B1E48093B40BDA
:102FD0009093B50BA093B60BB093B70B8DEC9CEC14
:102FE000ACECBEE38093B00B9093B10BA093B20B0B
:102FF000B093B30B80E090E0A0E2B1E48093AC0B1F
:103000009093AD0BA093AE0BB093AF0B1092D30B7C
:103010001092D40B1092D50B1092D60B1092CF0BAE
:103020001092D00B1092D10B1092D20B1092CB0BAE
:103030001092CC0B1092CD0B1092CE0B8DE39AE038
:10304000A7EBBFEB80935E0290935F02A0936002B8
:10305000B09361028CEE91E5A6EEB1E48093180284
:1030600090931902A0931A02B0931B0283E594E493
:10307000A0ECBEE380931C0290931D02A0931E025D
:10308000B0931F0284E49AEFA9E0B4E480931402A1
:1030900090931502A0931602B093170280E090E07F
:1030A000A8ECB2E48093070290930802A09309026F
:1030B000B0930A0284E190E09093060280930502A7
:1030C0000E947A1480E090E0A3E9B3E480933E028A
:1030D00090933F02A0934002B09341028AEE98E79A
:1030E000ACE4B1E480933A0290933B02A0933C029B
:1030F000B0933D028AE79EEDA2EFB4E480933602DE
:1031000090933702A0933802B093390210927F0B4C
:1031100080E090E0A0E4B0E480932E0290932F0230
:10312000A0933002B09331020E94FC16E7E6F9E169
:103130008491882341F09091C00095FFFCCF80934B
:10314000C6003196F5CFE8ECF9E08491882341F090
:103150009091C00095FFFCCF8093C6003196F5CFCB
:103160008091C00085FFFCCF8AE08093C600E09686
:103170000FB6F894DEBF0FBECDBFDF91CF911F9188
:103180000F91FF90EF90DF90CF90BF90AF90089598
:10319000179AE8E6FBE01082169A1182159A1282BD
:1031A000149A0895F8940E94C6130E94C818EAEC75
:1031B000FAE18491882341F09091C00095FFFCCF03
:1031C0008093C6003196F5CFEBEAFAE1849188232B
:1031D00041F09091C00095FFFCCF8093C6003196DE
:1031E000F5CF8091C00085FFFCCF8AE08093C600B8
:1031F0007894C6E0D0E0219739F068EC70E080E088
:1032000090E00E94BE10F7CFF894A895FECF8F9261
:103210009F92AF92BF92CF92DF92EF92FF92CF93A5
:10322000DF93EC01C0905202D0905302E090540220
:10323000F0905502A7019601688179818A819B816E
:103240000E94009287FF04C0C882D982EA82FB8272
:10325000C0905602D0905702E0905802F090590268
:10326000A70196016C817D818E819F810E940092D1
:1032700087FF04C0CC82DD82EE82FF82C0905E02B6
:10328000D0905F02E0906002F090610220E030E0B8
:10329000A901C701B6010E94009287FF8BC020E000
:1032A00030E0A901C701B6010E94D0956B017C01F5
:1032B0008090D30B9090D40BA090D50BB090D60BF0
:1032C00020E030E0A901C501B4010E94009287FF0F
:1032D00008C0A5019401C701B6010E94D0956B01F9
:1032E0007C0120915A0230915B0240915C02509126
:1032F0005D02C701B6010E94D0956B017C01AC0153
:103300009B01688579858A859B850E94009287FF4D
:1033100004C0C886D986EA86FB86C0904602D09053
:103320004702E0904802F0904902A70196016881A7
:1033300079818A819B810E943098181624F4C88272
:10334000D982EA82FB82C0904A02D0904B02E09080
:103350004C02F0904D02A70196016C817D818E8117
:103360009F810E943098181624F4CC82DD82EE8270
:10337000FF82C0904E02D0904F02E0905002F09039
:103380005102A7019601688579858A859B850E94EF
:103390003098181624F4C886D986EA86FB86DF9111
:1033A000CF91FF90EF90DF90CF90BF90AF909F9024
:1033B0008F900895C12CD12C76017ACFE3E2F3E00F
:1033C0008191882339F09091C00095FFFCCF8093C4
:1033D000C600F6CF8091C00085FFFCCF8AE08093C5
:1033E000C600E9E0F9E08491882341F09091C000A3
:1033F00095FFFCCF8093C6003196F5CF1E9B0CC085
:10340000EEE1F3E08191882351F09091C00095FFA7
:10341000FCCF8093C600F6CFE4E1F3E0F3CF8091D8
:10342000C00085FFFCCF8AE08093C600E1E0F9E0B0
:103430008491882341F09091C00095FFFCCF809348
:10344000C6003196F5CF37990CC0E4E1F3E08191E5
:10345000882351F09091C00095FFFCCF8093C60067
:10346000F6CFEEE1F3E0F3CF8091C00085FFFCCF13
:103470008AE08093C600E9EFF8E08491882341F068
:103480009091C00095FFFCCF8093C6003196F5CF98
:103490001D990CC0E4E1F3E08191882351F09091F3
:1034A000C00095FFFCCF8093C600F6CFEEE1F3E0BD
:1034B000F3CF8091C00085FFFCCF8AE08093C600E7
:1034C000E1EFF8E08491882341F09091C00095FFEE
:1034D000FCCF8093C6003196F5CF02990CC0E4E191
:1034E000F3E08191882351F09091C00095FFFCCFCB
:1034F0008093C600F6CFEEE1F3E0F3CF8091C000F9
:1035000085FFFCCF8AE08093C60024982C9AE9EED0
:10351000F8E08491882341F09091C00095FFFCCFA2
:103520008093C6003196F5CF1C990CC0E4E1F3E01E
:103530008191882351F09091C00095FFFCCF80933A
:10354000C600F6CFEEE1F3E0F3CF8091C00085FF37
:10355000FCCF8AE08093C600249A2C98E1EEF8E034
:103560008491882341F09091C00095FFFCCF809317
:10357000C6003196F5CF01990CC0E4E1F3E08191EA
:10358000882351F09091C00095FFFCCF8093C60036
:10359000F6CFEEE1F3E0F3CF8091C00085FFFCCFE2
:1035A0008AE08093C6000895E3E8F5E024912223A1
:1035B00041F03091C00035FFFCCF2093C60031961A
:1035C000F5CFFC012491222341F03091C00035FF5A
:1035D000FCCF2093C6000196F4CFEBE6F5E0849192
:1035E000882341F09091C00095FFFCCF8093C600E6
:1035F0003196F5CF8091C00085FFFCCF8AE08093A3
:10360000C6000895E7E6F9E18491882341F090919E
:10361000C00095FFFCCF8093C6003196F5CFE9E559
:10362000F5E08491882341F09091C00095FFFCCF94
:103630008093C6003196F5CF8091C00085FFFCCF06
:103640008AE08093C60008958091330B811103C0F6
:1036500081E08093330B089580E1E3E2FBE0AFEC7F
:10366000BFE001900D928A95E1F708950F931F93A3
:10367000CF93DF9300D000D0CDB7DEB726E0EFEBDD
:10368000F2E0DE01119601900D922A95E1F7FC011E
:10369000EE0FFF1F21E030E02C0F3D1FE20FF31F64
:1036A00060817181161617061CF1E7E6F9E1249195
:1036B000222341F03091C00035FFFCCF2093C6009B
:1036C0003196F5CFEDE1F5E02491222341F03091E0
:1036D000C00035FFFCCF2093C6003196F5CF209176
:1036E000C00025FFFCCF2AE02093C6006AE070E00E
:1036F000880F991F880F991F8C0106531D4F072EA5
:10370000000C880B990B0E9407929B01AC01F801F9
:1037100060817181828193810E94CA966093630265
:1037200070936402809365029093660226960FB6AA
:10373000F894DEBF0FBECDBFDF91CF911F910F91E7
:103740000895FC0165917591859194910895CF92AA
:10375000DF92EF92FF920F931F93CF93DF93EC01D1
:10376000CC0FDD1FCC0FDD1FFE01E553F44FDE0152
:10377000AB5CB44F2D913D914D915C916081718115
:10378000828193810E94D0956B017C01CE018F5E76
:103790009A4F0E94A11B9B01AC018E010E5A1D4F36
:1037A000C701B6010E94D095F801608371838283BE
:1037B0009383CE018B5F9A4F0E94A11B9B01AC01AA
:1037C000CA5BDD4FC701B6010E94D095688379833B
:1037D0008A839B83DF91CF911F910F91FF90EF9090
:1037E000DF90CF900895EF92FF920F931F93CF93A6
:1037F000DF938C01EC01CC0FDD1FCC0FDD1FFE0130
:10380000EB5CF44F1082118212821382CE01825F30
:10381000964E0E94A11B9B01AC01CE018153904F9B
:103820007C01C553D44F688179818A819B810E9434
:10383000D095F7016083718382839383C801DF9100
:10384000CF911F910F91FF90EF900C94A71B8F9237
:103850009F92AF92BF92EF92FF920F931F93CF93DD
:10386000DF938C014A015B01EC01CC0FDD1FCC0F13
:10387000DD1FCE018153904F7C01C553D44F288169
:1038800039814A815B81CB01B4010E94CF95F70158
:1038900020813181428153810E94D095F70160835C
:1038A00071838283938388829982AA82BB82C801B2
:1038B000DF91CF911F910F91FF90EF90BF90AF904C
:1038C0009F908F900C94A71B2091B0043091B1046D
:1038D000F901E854FB4F8083C90101966AE070E06A
:1038E0000E9498959093B1048093B0048091B40F96
:1038F0009091B50F01969093B50F8093B40F0895F2
:103900000E94F0106093190B70931A0B80931B0B9D
:1039100090931C0B08950E94801CE091B20FF091CF
:10392000B30FE854FB4F80818823A1F0EAE1F9E06E
:103930008491882341F09091C00095FFFCCF809343
:10394000C6003196F5CF8091C00085FFFCCF8AE09C
:103950008093C600089580912C0280932D0280915F
:103960001F0B9091200BA091210BB091220B809303
:10397000630290936402A0936502B0936602809103
:103980001D0B90911E0B90933302809332020C9486
:10399000801C8091630290916402A0916502B091B5
:1039A000660280931F0B9093200BA093210BB09382
:1039B000220B809132029091330290931E0B8093E0
:1039C0001D0B84E690E090933302809332020E94B4
:1039D000801C81E080932D0208952F923F924F9298
:1039E0005F926F927F928F929F92AF92BF92CF928F
:1039F000DF92EF92FF920F931F93CF93DF93CDB798
:103A0000DEB7A0970FB6F894DEBF0FBECDBF61152D
:103A100071058105910501F58091C00085FFFCCFFE
:103A200080E38093C600A0960FB6F894DEBF0FBE69
:103A3000CDBFDF91CF911F910F91FF90EF90DF905D
:103A4000CF90BF90AF909F908F907F906F905F903E
:103A50004F903F902F9008958E010F5F1F4F812C44
:103A6000912C54011801442E512C712C612CA3016E
:103A700092010E943595750164018FEFC81AD80A2A
:103A8000E80AF80AF80161938F01B901CA016115CA
:103A9000710581059105C9F4F101E80DF91D8081D9
:103AA0008A30B0F4805D9091C00095FFFCCF809388
:103AB000C600F1E08F1A9108A108B1088FEF8816AF
:103AC0009806A806B80641F7AECF46015701CFCFFA
:103AD000895CE9CF97FF0EC02091C00025FFFCCF85
:103AE0002DE22093C60090958095709561957F4F4B
:103AF0008F4F9F4F4AE00C94ED1CFC01CB01BA01A3
:103B00002491222341F03091C00035FFFCCF209357
:103B1000C6003196F5CF4AE00C94ED1CBC0190E054
:103B200080E04AE00E94ED1C8091C00085FFFCCF40
:103B30008DE08093C6008091C00085FFFCCF8AE0B5
:103B40008093C60008958F929F92AF92BF92CF92BA
:103B5000DF92EF92FF92CF936B017C01B42E20E0B5
:103B600030E0A9010E94009287FF0BC08091C00045
:103B700085FFFCCF8DE28093C600F7FAF094F7F84A
:103B8000F094C0E060E070E080E09FE3CB1541F08E
:103B900020E030E040E251E40E94CA96CF5FF6CFC9
:103BA000A70196010E94D0956B017C010E9443976A
:103BB0004B015C014AE00E94ED1CCC2381F1809115
:103BC000C00085FFFCCFC501B4010E9405929B0196
:103BD000AC01C701B6010E94CF952EE22093C6002A
:103BE000C150E8F020E030E040E251E40E94988DBE
:103BF0004B015C010E943C976B01770FEE08FF08B8
:103C0000C701B6010E946A1DC701B6010E94079252
:103C10009B01AC01C501B4010E94CF95E1CFCF91CA
:103C2000FF90EF90DF90CF90BF90AF909F908F90DC
:103C30000895FC01CB01BA012491222341F0309177
:103C4000C00035FFFCCF2093C6003196F5CF42E08F
:103C50000C94A31D8091F70A9091F80A0E94841297
:103C60006093470B7093480B8093490B90934A0BDA
:103C70008091F30A9091F40A0E94E5136093600B1F
:103C80007093610B8093620B9093630BA8958FB731
:103C9000F8941092FF0A8FBF0895209162022223A8
:103CA00009F437C0EAECFAE12491222341F0309183
:103CB000C00035FFFCCF2093C6003196F5CFFB0145
:103CC0002491222349F03091C00035FFFCCF20938E
:103CD000C6006F5F7F4FF3CFEBE9F5E1249122231C
:103CE00041F03091C00035FFFCCF2093C6003196E3
:103CF000F5CF8F3F9807C1F0BC01990F880B990B46
:103D00000E946A1D8091C00085FFFCCF8AE08093ED
:103D1000C6008091E40A811119C01092620281E00C
:103D20008093E40A0E94D218E7E9F5E184918823A0
:103D300041F09091C00095FFFCCF8093C600319672
:103D4000F5CF8091C00085FFFCCFE0CF0C94C61367
:103D50002F923F924F925F926F927F928F929F929B
:103D6000AF92BF92CF92DF92EF92FF920F931F9389
:103D7000CF93DF9300D000D0CDB7DEB79E838D8385
:103D80004B0129833A834B835C83270138018601E9
:103D9000150181E090E0CD2811F490E080E05C0115
:103DA000AA0CBB1CAA0CBB1CF501ED5EFF4EC0802B
:103DB000D180E280F380A3019201C701B6010E9485
:103DC0000092882321F0ED81FE8111821082ED8125
:103DD000FE81808191818230910509F468C0F8F4F8
:103DE000009709F441C0019709F449C026960FB61F
:103DF000F894DEBF0FBECDBFDF91CF911F910F9121
:103E0000FF90EF90DF90CF90BF90AF909F908F90FA
:103E10007F906F905F904F903F902F9008958330E8
:103E2000910509F452C0049709F74DE85AE16DE98C
:103E30007AE1C80126960FB6F894DEBF0FBECDBF5B
:103E4000DF91CF911F910F91FF90EF90DF90CF9076
:103E5000BF90AF909F908F907F906F905F904F90AA
:103E60003F902F900C944D1EF4011082118212820B
:103E7000138281E090E0ED81FE819183808320E0D8
:103E800030E0A901C301B2010E94309818160CF06D
:103E9000ADCFF501ED5EFF4E4082518262827382AA
:103EA00082E090E0ED81FE81918380839FCF298124
:103EB0003A814B815C81C701B6010E9400921816BD
:103EC0000CF494CF83E090E0EDCFB101330C880B7C
:103ED000990B0E9407929B01AC01C701B6010E9499
:103EE000CF959B01AC0169817A818B819C810E9475
:103EF000309887FD08C00E94F010F4016083718340
:103F00008283938373CF0E94F010F40100811181AA
:103F100022813381601B710B820B930B68597A43AA
:103F20008109910997FD62CF84E090E0BBCFEDE578
:103F3000F4E18491882341F09091C00095FFFCCF7B
:103F40008093C6003196F5CFE9E5F4E184918823AA
:103F500041F09091C00095FFFCCF8093C600319650
:103F6000F5CF88E20E943A0FBC01990F880B990B9C
:103F70000E946A1D89E20E943A0FBC01990F880BCA
:103F8000990B0E946A1D8091C00085FFFCCF8AE0DA
:103F90008093C600E5E5F4E18491882341F0909197
:103FA000C00095FFFCCF8093C6003196F5CF85E425
:103FB0000E943A0FBC01990F880B990B0E946A1D51
:103FC00087E20E943A0FBC01990F880B990B0E945F
:103FD0006A1D8091C00085FFFCCF8AE08093C600F7
:103FE000E1E5F4E18491882341F09091C00095FFD0
:103FF000FCCF8093C6003196F5CF84E40E943A0F3F
:10400000BC01990F880B990B0E946A1D83E40E94E2
:104010003A0FBC01990F880B990B0E946A1D809181
:10402000C00085FFFCCF8AE08093C600ECE4F4E199
:104030008491882341F09091C00095FFFCCF80933C
:10404000C6003196F5CF81E40E943A0FBC01990F6A
:10405000880B990B0E946A1D82E40E943A0FBC01F2
:10406000990F880B990B0E946A1D8091C00085FFF3
:10407000FCCF8AE08093C60008958FB7F8949091A2
:10408000A8109093A7108FBFE1E1F9E084918823F5
:1040900041F09091C00095FFFCCF8093C60031960F
:1040A000F5CF6091B4047091B5048091B6049091FD
:1040B000B7046F5F7F4F8F4F9F4F0E946A1D8091A3
:1040C000C00085FFFCCF8AE08093C6000C948B1C57
:1040D0008F929F92AF92BF92CF92DF92EF92FF9218
:1040E000EEEDF8E08491882341F09091C00095FFB7
:1040F000FCCF8093C6003196F5CF6091CF0F7091C1
:10410000D00F8091D10F9091D20F42E00E94A31D59
:10411000EAEDF8E08491882341F09091C00095FF8A
:10412000FCCF8093C6003196F5CF6091D30F70918C
:10413000D40F8091D50F9091D60F42E00E94A31D1D
:10414000E6EDF8E08491882341F09091C00095FF5E
:10415000FCCF8093C6003196F5CF6091D70F709158
:10416000D80F8091D90F9091DA0F42E00E94A31DE1
:10417000E2EDF8E08491882341F09091C00095FF32
:10418000FCCF8093C6003196F5CF6091DB0F709124
:10419000DC0F8091DD0F9091DE0F42E00E94A31DA5
:1041A0002FB7F8946091BF0F7091C00F8091C10F2D
:1041B0009091C20F8090C30F9090C40FA090C50F34
:1041C000B090C60FC090C70FD090C80FE090C90F35
:1041D000F090CA0F2FBFE7ECF8E02491222341F0C2
:1041E0003091C00035FFFCCF2093C6003196F5CF4B
:1041F0000E946A1DE3ECF8E08491882341F09091DD
:10420000C00095FFFCCF8093C6003196F5CFC50165
:10421000B4010E946A1DEFEBF8E08491882341F01D
:104220009091C00095FFFCCF8093C6003196F5CFEA
:10423000C701B6010E946A1D8091C00085FFFCCFB6
:104240008AE08093C600FF90EF90DF90CF90BF9000
:10425000AF909F908F900895EBEBF8E084918823C6
:1042600041F09091C00095FFFCCF8093C60031963D
:10427000F5CFE091C40B84E0E89FF0011124E95BE5
:10428000F44F608171818281938141E00E94A31D7E
:10429000E8EBF8E08491882341F09091C00095FF0D
:1042A000FCCF8093C6003196F5CFE091C40BF0E0CF
:1042B000EE0FFF1FE95AF44F60817181072E000C49
:1042C000880B990B0E94079241E00E94A31DE4EB2A
:1042D000F8E08491882341F09091C00095FFFCCFD5
:1042E0008093C6003196F5CF6091600B7091610BA1
:1042F0008091620B9091630B41E00E94A31DE1EB62
:10430000F8E08491882341F09091C00095FFFCCFA4
:104310008093C6003196F5CF6091640B7091650B68
:10432000072E000C880B990B0E94079241E00E9417
:10433000A31DECEAF8E08491882341F09091C0003D
:1043400095FFFCCF8093C6003196F5CF6091160B98
:1043500070E090E080E00E946A1DE8EAF8E0849155
:10436000882341F09091C00095FFFCCF8093C60058
:104370003196F5CFE091C40BF0E0E85EF44F608138
:1043800070E090E080E00C946A1D2F923F924F9273
:104390005F926F927F928F929F92AF92BF92CF92D5
:1043A000DF92EF92FF920F931F93CF93DF93CDB7DE
:1043B000DEB7E4970FB6F894DEBF0FBECDBF6B8FAC
:1043C0007C8F8D8F9E8F1A0139AB28AB0AAB0E9470
:1043D000F0106F87788B898B9A8BE0E4F3E01214EE
:1043E000130464F5E3E5F3E08191882339F09091BB
:1043F000C00095FFFCCF8093C600F6CF8091C0002F
:1044000085FFFCCF8AE08093C600E4960FB6F8944F
:10441000DEBF0FBECDBFDF91CF911F910F91FF90F7
:10442000EF90DF90CF90BF90AF909F908F907F9054
:104430006F905F904F903F902F90089581918823C7
:1044400039F09091C00095FFFCCF8093C600F6CF65
:104450008091C00085FFFCCF8AE08093C6000E9457
:10446000C6138FE72114310409F4E6C08093160BBC
:104470002F85388949895A892BA33CA34DA35EA374
:104480002BA73CA74DA75EA71F8A30E4388F4CE1CD
:10449000498F56E45A8F1B8A1C8A1D8A1E8A812CDA
:1044A000912C54018F8E98A2A9A2BAA27501640121
:1044B000FFE74F2E512C612C712C8FE790E0A0E08C
:1044C000B0E089839A83AB83BC831FA218A619A688
:1044D0001AA691E099871E861D8610E000E01BAAAF
:1044E0001CAA0E94F0106D837E838F839887A09111
:1044F000FF0AAFA7AA2309F47FC00E942A1E211435
:10450000310409F09CC01091470B0091480BB09109
:10451000490BBBABE0914A0BECAB212F302F4BA9E1
:104520005CA96B897C898D899E890E9430981816B8
:1045300034F01B8B0C8B3BA93D8B4CA94E8B212F50
:10454000302F4BA95CA96F89788D898D9A8D0E9437
:10455000009287FD06C01F8B088F5BA9598F8CA91D
:104560008A8F99852B8D3C8D4D8D5E8D612F702F9F
:104570008BA9992309F471C39CA90E94309818163D
:10458000DCF58D819E81AF81B8852BA13CA14DA129
:104590005EA1821B930BA40BB50BAC01BD01485867
:1045A00053416109710977FD27C049815A816B81A7
:1045B0007C81441955096609770975956795579562
:1045C00047952114310409F445C04093160B8FA37D
:1045D00098A7A9A7BAA73B8D3B8B4C8D4C8B5D8DC3
:1045E0005D8B8E8D8E8B2D813E814F8158852F87DF
:1045F000388B498B5A8B198620E030E040EA51E431
:104600006B8D7C8D8D8D9E8D0E94D095212F302FAE
:104610004BA95CA90E94009287FF9DC1E6E2F5E1EB
:104620008491882309F492C19091C00095FFFCCF3A
:104630008093C6003196F4CF8093180B19CF109158
:10464000600B0091610BF091620BFBAB2091630B4F
:104650002CAB63CF4093180BBACF4BEE442E512CAA
:10466000612C712C54C324E130E040E050E02983F8
:104670003A834B835C8334E1432E512C612C712CA3
:1046800054C349825A826B827C824FC369817A818A
:104690008B819C810E946A1DEAE8F5E18491882360
:1046A00041F09091C00095FFFCCF8093C6003196F9
:1046B000F5CFC301B2010E946A1DE3E8F5E18491E0
:1046C000882341F09091C00095FFFCCF8093C600F5
:1046D0003196F5CF42E06F89788D898D9A8D0E9451
:1046E000A31DECE7F5E18491882341F09091C0008F
:1046F00095FFFCCF8093C6003196F5CF42E06B89E1
:104700007C898D899E890E94A31D8091C00085FFB0
:10471000FCCF3AE03093C6004D855E8543305105AD
:104720000CF4E8C0C301B2010E94079220E030E01F
:1047300040E850E40E94988D6B017C012F89388DF0
:10474000498D5A8D6B897C898D899E890E94CF9570
:104750002BED3FE049E450E40E94988D20E030E0EA
:1047600040E05FE30E94988D9B01AC01C701B60158
:104770000E94CA966B017C0169857A858B859C8530
:104780000E94079220E030E04AE754E40E94CA9673
:104790004B015C01E6E7F5E18491882341F09091BB
:1047A000C00095FFFCCF8093C6003196F5CF42E064
:1047B000C701B6010E94A31DE0E7F5E184918823BB
:1047C00041F09091C00095FFFCCF8093C6003196D8
:1047D000F5CF42E0C501B4010E94A31D8091C00045
:1047E00085FFFCCF5AE05093C6002AE939E949E138
:1047F0005FE3C701B6010E94988D6B017C01AC019B
:104800009B010E94D095A50194010E94CA966F8FCA
:1048100078A389A39AA3A7019601C501B4010E94B8
:10482000988D20E030E040E05EE30E94988D4B01DF
:104830005C01E2E6F5E18491882341F09091C000AB
:1048400095FFFCCF8093C6003196F5CF8091C000D4
:1048500085FFFCCF8AE08093C600ECE5F5E184910A
:10486000882341F09091C00095FFFCCF8093C60053
:104870003196F5CF42E0C701B6010E94A31D809199
:10488000C00085FFFCCF9AE09093C600E6E5F5E115
:104890008491882341F09091C00095FFFCCF8093D4
:1048A000C6003196F5CF42E06F8D78A189A19AA11B
:1048B0000E94A31D8091C00085FFFCCFAAE0A093B9
:1048C000C600E0E5F5E18491882341F09091C000B5
:1048D00095FFFCCF8093C6003196F5CF42E0C5012D
:1048E000B4010E94A31D8091C00085FFFCCFBAE0F7
:1048F000B093C60089819A81AB81BC81840D951DDE
:10490000A61DB71DB595A7959795879521143104D8
:10491000D1F08093160BED85FE853196FE87ED87ED
:10492000FB8DFF8B2C8D288F3D8D398F4E8D4A8FBF
:104930008D819E81AF81B8858BA39CA3ADA3BEA3BF
:104940009FA5998759CE8093180BE5CF8091C00021
:1049500085FFFCCF57CD8D819E81AF81B885805D6D
:104960009740A109B1092BA53CA54DA55EA5821BC9
:10497000930BA40BB50BB7FD11C00E942C218091A5
:10498000C00085FFFCCF3AE03093C6008D819E8148
:10499000AF81B8858BA79CA7ADA7BEA72D813E810F
:1049A0004F815885220F331F441F551F2D833E838F
:1049B0004F8358874F85588969897A898BA19CA133
:1049C000ADA1BEA1480F591F6A1F7B1F8D819E811B
:1049D000AF81B885841B950BA60BB70B81389F441C
:1049E000A241B10590F0E9E0F5E18491882341F01E
:1049F0009091C00095FFFCCF8093C6003196F5CF13
:104A00008091C00085FFFCCFFDCC2D853E8548A957
:104A100059A9421753070CF064CDEDEAF4E18491F3
:104A2000882341F09091C00095FFFCCF8093C60091
:104A30003196F5CF8091C00085FFFCCF8AE080934E
:104A4000C60021143104B1F08CE393E09A8389838A
:104A5000EBE9F4E18491811112C009811A81F80116
:104A600081918823A1F09091C00095FFFCCF8093A5
:104A7000C600F6CFA2EDB3E0BA83A983E9CF909147
:104A8000C00095FFFCCF8093C6003196E3CFE7E9E5
:104A9000F4E18491882341F09091C00095FFFCCF10
:104AA0008093C6003196F5CF42E0C701B6010E945F
:104AB000A31D8091C00085FFFCCF8AE08093C600D3
:104AC000E5E8F4E18491882341F09091C00095FFDE
:104AD000FCCF8093C6003196F5CFE981FA818191B0
:104AE000FA83E983882339F09091C00095FFFCCFC9
:104AF0008093C600F2CFE1E8F4E18491882341F08D
:104B00009091C00095FFFCCF8093C6003196F5CF01
:104B100042E06F8D78A189A19AA10E94A31D809186
:104B2000C00085FFFCCF8AE08093C600EFE6F4E189
:104B30008491882341F09091C00095FFFCCF809331
:104B4000C6003196F5CFD8018D918D01882339F0BB
:104B50009091C00095FFFCCF8093C600F4CFEBE6A8
:104B6000F4E18491882341F09091C00095FFFCCF3F
:104B70008093C6003196F5CF42E0C501B4010E9492
:104B8000A31D8091C00085FFFCCF8AE08093C60002
:104B9000BAA9BB2309F439CC2CE933E549E45EE337
:104BA000C501B4010E94CA964B015C012CE933E5B2
:104BB00049E45EE36F8D78A189A19AA10E94988D46
:104BC000232891F1C0923E02D0923F02E09240022F
:104BD000F092410260933A0270933B0280933C0250
:104BE00090933D028092360290923702A092380252
:104BF000B0923902E4960FB6F894DEBF0FBECDBF77
:104C0000DF91CF911F910F91FF90EF90DF90CF90A8
:104C1000BF90AF909F908F907F906F905F904F90DC
:104C20003F902F900C947A14C0921802D0921902DF
:104C3000E0921A02F0921B0260931C0270931D0214
:104C400080931E0290931F0280921402909215028C
:104C5000A0921602B0921702CDCF9CA90E9400929A
:104C600087FFCACC8D819E81AF81B8852F85388919
:104C700049895A89821B930BA40BB50BAC01BD016A
:104C8000485853416109710977FDB6CC4D855E8561
:104C9000141615060CF02ECE2FA138A549A55AA53D
:104CA000280F391F4A1F5B1F29873A874B875C876C
:104CB0002FA138A549A55AA5281B390B4A0B5B0B18
:104CC000C301B2010E94259529853A854B855C85F3
:104CD0000E94579549805A806B807C80420E531EFB
:104CE000641E751E34E143165104610471040CF412
:104CF000BACC4CEE44165104610471040CF0ADCCF6
:104D000050E845165104610471040CF4BACC498290
:104D10005A826B827C828EEF90E0A0E0B0E0841932
:104D20009509A609B7092C013D01EFE8F5E1849149
:104D3000882309F4ABCC9091C00095FFFCCF809301
:104D4000C6003196F4CFCF93C62FEAECFAE1249156
:104D5000222341F03091C00035FFFCCF2093C600E4
:104D60003196F5CFFC012491222341F03091C0000F
:104D700035FFFCCF2093C6000196F4CF6091B404B8
:104D80007091B5048091B6049091B7040E946A1D99
:104D90008091C00085FFFCCF8AE08093C600C111DE
:104DA0000E943D201092B3041092B204CF91089556
:104DB000FC012491222341F03091C00035FFFCCF4B
:104DC0002093C6000196F4CF072E000C880B990B98
:104DD0000C946A1DCF93C82F81112EC0E7E6F9E12C
:104DE0008491882341F09091C00095FFFCCF80937F
:104DF000C6003196F5CFE4E0FCE08491882341F0D1
:104E00009091C00095FFFCCF8093C6003196F5CFFE
:104E10008091C00085FFFCCF8AE08093C600E7E662
:104E2000F9E18491882341F09091C00095FFFCCF77
:104E30008093C6003196F5CF409103105091041035
:104E400060910510709106108CEF9BE00E94191E76
:104E500040910710509108106091091070910A104C
:104E600089EF9BE00E94191E40910B1050910C108D
:104E700060910D1070910E1086EF9BE00E94191E3C
:104E800040910F10509110106091111070911210FC
:104E900083EF9BE00E94191E8091C00085FFFCCF2C
:104EA0008AE08093C600C1112EC0E7E6F9E1849143
:104EB000882341F09091C00095FFFCCF8093C600FD
:104EC0003196F5CFE9EDFBE08491882341F0909194
:104ED000C00095FFFCCF8093C6003196F5CF80913E
:104EE000C00085FFFCCF8AE08093C600E7E6F9E1C9
:104EF0008491882341F09091C00095FFFCCF80936E
:104F0000C6003196F5CF4091900B5091910B609176
:104F1000920B7091930B80ED9BE00E94191E4091C3
:104F2000940B5091950B6091960B7091970B8DECB3
:104F30009BE00E94191E4091980B5091990B609133
:104F40009A0B70919B0B8AEC9BE00E94191E40917A
:104F50009C0B50919D0B60919E0B70919F0B87EC69
:104F60009BE00E94191E8091C00085FFFCCF8AE063
:104F70008093C600C1112EC0E7E6F9E18491882331
:104F800041F09091C00095FFFCCF8093C600319610
:104F9000F5CFE9EAFBE08491882341F09091C000CD
:104FA00095FFFCCF8093C6003196F5CF8091C0006D
:104FB00085FFFCCF8AE08093C600E7E6F9E18491A3
:104FC000882341F09091C00095FFFCCF8093C600EC
:104FD0003196F5CF4091800B5091810B6091820BFF
:104FE0007091830B80EA9BE00E947D1D4091840BB1
:104FF0005091850B6091860B7091870B8DE99BE03A
:105000000E947D1D4091880B5091890B60918A0B05
:1050100070918B0B8AE99BE00E947D1D40918C0B67
:1050200050918D0B60918E0B70918F0B87E99BE0F7
:105030000E947D1D8091C00085FFFCCF8AE0809397
:10504000C600C1112EC0E7E6F9E18491882341F042
:105050009091C00095FFFCCF8093C6003196F5CFAC
:10506000E5E6FBE08491882341F09091C00095FF34
:10507000FCCF8093C6003196F5CF8091C00085FFAC
:10508000FCCF8AE08093C600E7E6F9E184918823AB
:1050900041F09091C00095FFFCCF8093C6003196FF
:1050A000F5CF4091A80B5091A90B6091AA0B70917C
:1050B000AB0B8CE59BE00E94191E4091A00B509118
:1050C000A10B6091A20B7091A30B89E59BE00E945C
:1050D000191E4091A40B5091A50B6091A60B7091E5
:1050E000A70B86E59BE00E94191E8091C00085FFFA
:1050F000FCCF8AE08093C600C1112EC0E7E6F9E13B
:105100008491882341F09091C00095FFFCCF80935B
:10511000C6003196F5CFE3EAFAE08491882341F0A6
:105120009091C00095FFFCCF8093C6003196F5CFDB
:105130008091C00085FFFCCF8AE08093C600E7E63F
:10514000F9E18491882341F09091C00095FFFCCF54
:105150008093C6003196F5CF4091C00B5091C10BA2
:105160006091C20B7091C30B8AE99AE00E94191EEC
:105170004091BC0B5091BD0B6091BE0B7091BF0B69
:1051800087E99AE00E94191E4091B80B5091B90B23
:105190006091BA0B7091BB0B84E99AE00E947D1D6F
:1051A0004091B40B5091B50B6091B60B7091B70B59
:1051B00081E99AE00E94191E4091B00B5091B10B09
:1051C0006091B20B7091B30B8EE89AE00E94191EA9
:1051D0004091AC0B5091AD0B6091AE0B7091AF0B49
:1051E0008BE89AE00E94191E8091C00085FFFCCFD9
:1051F0008AE08093C600C1112EC0E7E6F9E18491F0
:10520000882341F09091C00095FFFCCF8093C600A9
:105210003196F5CFE9E7FAE08491882341F0909147
:10522000C00095FFFCCF8093C6003196F5CF8091EA
:10523000C00085FFFCCF8AE08093C600E7E6F9E175
:105240008491882341F09091C00095FFFCCF80931A
:10525000C6003196F5CF4091CB0B5091CC0B6091AD
:10526000CD0B7091CE0B80E79AE00E94191E409101
:10527000CF0B5091D00B6091D10B7091D20B8DE67A
:105280009AE00E94191E4091D30B5091D40B60916B
:10529000D50B7091D60B8AE69AE00E94191E809178
:1052A000C00085FFFCCF8AE08093C600C1112EC0EC
:1052B000E7E6F9E18491882341F09091C00095FFE1
:1052C000FCCF8093C6003196F5CFECE5FAE08491EF
:1052D000882341F09091C00095FFFCCF8093C600D9
:1052E0003196F5CF8091C00085FFFCCF8AE0809396
:1052F000C600E7E6F9E18491882341F09091C0006F
:1053000095FFFCCF8093C6003196F5CF40911802EF
:105310005091190260911A0270911B0283E59AE084
:105320000E94191E2CE933E549E45EE360911C02FA
:1053300070911D0280911E0290911F020E94CA96D8
:10534000AB01BC0180E59AE00E94191E2CE933E50F
:1053500049E45EE360911402709115028091160297
:10536000909117020E94988DAB01BC018DE49AE0E8
:105370000E94191E40910702509108026091090293
:1053800070910A028AE49AE00E94191E6091050257
:105390007091060287E49AE00E94D8268091C000AE
:1053A00085FFFCCF8AE08093C600C1110DC0E7E6FF
:1053B000F9E18491882341F09091C00095FFFCCFE2
:1053C0008093C6003196F5CF40913E0250913F0246
:1053D00060914002709141028EE39AE00E94191E92
:1053E0002CE933E549E45EE360913A0270913B02B7
:1053F00080913C0290913D020E94CA96AB01BC0193
:105400008BE39AE00E94191E2CE933E549E45EE340
:105410006091360270913702809138029091390282
:105420000E94988DAB01BC0188E39AE00E94191E8E
:105430008091C00085FFFCCF8AE08093C600C11137
:1054400044C0E7E6F9E18491882341F09091C000DF
:1054500095FFFCCF8093C6003196F5CFE5E2FAE0E8
:105460008491882341F09091C00095FFFCCF8093F8
:10547000C6003196F5CF80917F0B8823A1F08091F3
:10548000C00085FFFCCF8AE08093C600E7E6F9E123
:1054900084918823D1F09091C00095FFFCCF809338
:1054A000C6003196F5CFEBE1FAE08491882341F014
:1054B0009091C00095FFFCCF8093C6003196F5CF48
:1054C0008091C00085FFFCCFDECF40912E0250912D
:1054D0002F02609130027091310282E19AE00E94C5
:1054E000191E8091C00085FFFCCF8AE08093C60022
:1054F00080917F0B811123C0CC2369F0E8E0FAE0B2
:1055000084918823A9F09091C00095FFFCCF8093EF
:10551000C6003196F5CFE7E6F9E18491882371F36F
:105520009091C00095FFFCCF8093C6003196F5CFD7
:105530008091C00085FFFCCF8AE08093C600C11136
:105540002EC0E7E6F9E18491882341F09091C000F4
:1055500095FFFCCF8093C6003196F5CFE3EFF9E0DD
:105560008491882341F09091C00095FFFCCF8093F7
:10557000C6003196F5CF8091C00085FFFCCF8AE050
:105580008093C600E7E6F9E18491882341F0909189
:10559000C00095FFFCCF8093C6003196F5CF4091B7
:1055A0005E0250915F0260916002709161028AEE2A
:1055B00099E00E94191E8091C00085FFFCCF8AE00F
:1055C0008093C600CF9108952F923F924F925F92A1
:1055D0006F927F928F929F92AF92BF92CF92DF9203
:1055E000EF92FF920F931F93CF93DF93CDB7DEB768
:1055F0002C970FB6F894DEBF0FBECDBF69837A83B8
:105600008B839C832D833E834F835887E986FA865C
:105610000B871C87CE0109969F938F9304979F93C6
:105620008F9304979F938F938DB79EB784970FB6F0
:10563000F8949EBF0FBE8DBFADB7BEB7119684E282
:10564000E7E6F2E001900D928A95E1F70E94A11140
:105650000FB6F894DEBF0FBECDBF03E010E1298185
:105660003A814B815C81F8016081718182819381F3
:105670000E94988D0E94E4982B013C0183EF282E14
:105680008FE0382EF10140825182628273822D8137
:105690003E814F815885F8016481758186819781AB
:1056A0000E94988D0E94E4984B015C01F101848274
:1056B0009582A682B78229853A854B855C85F8015B
:1056C00060857185828593850E94988D0E94E498FB
:1056D0006B017C01F101C086D186E286F386F80178
:1056E00024853585468557856091DB0F7091DC0FE9
:1056F0008091DD0F9091DE0F0E94988D0E94E498BA
:10570000F10164877587868797872FB7F894EFEB49
:10571000FFE0408251826282738284829582A682F7
:10572000B782C086D186E286F386648775878687CE
:1057300097872FBF1092EF0F1092F00F1092F10F7A
:105740001092F20FEFEDFFE01082118212821382AD
:10575000148215821682178210861186128613868D
:1057600014861586168617862C960FB6F894DEBF1B
:105770000FBECDBFDF91CF911F910F91FF90EF90A2
:10578000DF90CF90BF90AF909F908F907F906F9061
:105790005F904F903F902F900895EF92FF920F935C
:1057A0001F93EFECFFE0E084F184028513852481F0
:1057B00035814681578160817181828193810E9408
:1057C000E42A1F910F91FF90EF90089520910F1000
:1057D0003091101040911110509112106091DB0F18
:1057E0007091DC0F8091DD0F9091DE0F0E94988DFB
:1057F0000E94E498E3EFFFE06487758786879787C8
:105800008FB7F89444855585668577854093CB0F8F
:105810005093CC0F6093CD0F7093CE0F8FBF089530
:105820002F923F924F925F926F927F928F929F92B0
:10583000AF92BF92CF92DF92EF92FF920F931F939E
:10584000CF93DF93C12CD12C760118161906B4F42E
:105850008B011C01FB01C080D180E280F3800197A5
:1058600011F520E030E0A901C701B6010E940092C5
:1058700087FF04C0F7FAF094F7F8F094C701B60177
:10588000DF91CF911F910F91FF90EF90DF90CF901C
:10589000BF90AF909F908F907F906F905F904F9050
:1058A0003F902F900895812C912C80E8A82E8FE3B3
:1058B000B82E412C512C612C712CD0E0C0E0F801A5
:1058C000C190D190E190F1908F0120E030E0A901EA
:1058D000C701B6010E940092882379F120E030E0F0
:1058E000A901C701B6010E94009287FF04C0F7FA20
:1058F000F094F7F8F0949201A301C701B6010E9459
:105900003098181654F5A7019601B201C3010E9400
:10591000CA962B013C01A50194010E94988DA30118
:1059200092010E94988D20E030E040E85FE30E9401
:10593000D0954B015C012601370121962C163D06BE
:1059400009F0BDCFC501B4010E9425999201A301C0
:105950000E94988D6B017C0191CF9201A301C70138
:10596000B6010E94CA969B01AC010E94988D9B01D2
:10597000AC01C501B4010E94D0954B015C01DDCFA3
:105980004F925F926F927F92AF92BF92CF92DF92CF
:10599000EF92FF920F931F93CF93DF938C01EB0154
:1059A000FC0146A057A060A471A4AEA0BFA0C8A4EB
:1059B000D9A49501A601C301B2010E94009287FFFC
:1059C0003DC0A3019201C301B2010E94988D2B0139
:1059D0003C01F80162A973A984A995A990589B017B
:1059E000AC010E94D095F80126A537A540A951A980
:1059F0000E94988D9B01AC01C301B2010E94CF951A
:105A00000E9425997B018C019B01AC01B501C60167
:105A10000E94009287FF02C0750186019701A801CC
:105A2000B501C6010E940092882341F0C701D80148
:105A30008EA39FA3A8A7B9A781E08EABDF91CF91DA
:105A40001F910F91FF90EF90DF90CF90BF90AF909C
:105A50007F906F905F904F900895682F880F770B1D
:105A60008091E00B9091E10B0E9480999C019093B2
:105A7000420B8093410B81E0232B09F480E00895D1
:105A80008091410B9091420B4AE050E070E060E061
:105A900001960E945890CB010895EF92FF920F93C8
:105AA0001F93CF937C0184E50E942D2DC82F88235E
:105AB000B9F10E94402D8C01181619066CF5E7E625
:105AC000F9E18491882341F09091C00095FFFCCFCB
:105AD0008093C6003196F5CF8091C00085FFFCCF42
