:100000000C9423100C9410390C94E5380C94BA38E5
:100010000C948F380C9464380C9439380C940E3846
:100020000C94E3370C9454100C9454100C9454100A
:100030000C9454100C9494390C9454100C94541047
:100040000C9454100C9459840C9454100C94541027
:100050000C9454100C9454100C943E410C94F23BAC
:100060000C9454100C94038F0C94D98F0C9454104E
:100070000C9454100C9454100C9454100C94541070
:100080000C9454100C9454100C9454100C94541060
:100090000C9454100C9454100C9454100C94541050
:1000A0000C9454100C9454100C9454100C94541040
:1000B0000C9454100C9454100C9454100C94541030
:1000C0000C9454100C9454100C9454100C94541020
:1000D0000C9454100C9454100C9454100C94541010
:1000E0000C945410FB2EFE2EED2EF12EF72E352FF4
:1000F000022F062F0C2F102F142F1A2F1E2F222FF6
:10010000352F282F2C2F302F593A5E3A633A6D3A0B
:10011000773AF03A813A893A913A9B3AA53AAF3A1E
:10012000BE3AC83AF03AD23ADC3AE63A328F388FE1
:10013000498F548F5C8F728F608F728F648F688F3E
:10014000728F6E8F26A526A52DA52DA52DA534A5CC
:1001500034A534A541A53BA53BA53BA5084AD73B03
:100160003BCE016E84BCBFFDC12F3D6C74319ABD86
:1001700056833DDA3D00C77F11BED9E4BB4C3E91AA
:100180006BAAAABE000000803F05A84CCDB2D44E99
:10019000B93836A9020C50B9918688083CA6AAAA9B
:1001A0002ABE000000803F004E414E494E4954593E
:1001B000494E46CDCCCC3D0AD7233C17B7D1387732
:1001C000CC2B329595E6241FB14F0A000020410048
:1001D00000C84200401C4620BCBE4CCA1B0E5AAE92
:1001E000C59D74434F4D4D554E49434154494F4E63
:1001F0000044525952554E004552524F52530049F5
:100200004E464F004543484F0020746F6F206C6F7F
:100210006E6720657874727573696F6E2070726591
:1002200076656E7465640A0020636F6C642065787F
:1002300074727573696F6E2070726576656E746521
:10024000640A0047322F4733206261642070617274
:10025000616D65746572730A0050726F62696E67D2
:10026000206661696C6564004D31313720426564F8
:10027000206C6576656C696E67206661696C656483
:100280002E0A4730205A31300A47302045300A4D77
:100290003330302050323520533838300A4D333027
:1002A00030205035302053300A4D3330302050321A
:1002B0003520533838300A4D333030205035302017
:1002C00053300A4D333030205032352053383830D7
:1002D0000A4734205331004D3131372050726F625C
:1002E00065207375636365737366756C0A0050529D
:1002F0004F4245204641494C20434C45414E204EFB
:100300004F5A5A4C450A004D313034205331373062
:100310000A4D313137205265776970696E67206EFA
:100320006F7A7A6C650A4D3132310A4730205A3182
:10033000300A4732382058302059300A4D31313791
:10034000205265776970696E67206E6F7A7A6C6586
:100350000A473132205030205331322054300A4D78
:100360003132300A4D3131372050726F62696E6719
:1003700020626564005072696E742074696D653A1C
:100380002000000125301D0C1E2829FF24311C0BE4
:10039000184527FF232F1B0A174443FFFFFFFF04C5
:1003A0000806FF06222B1A4142FF043803FF36508D
:1003B000726F7465637465642050696E0A004669E3
:1003C0006C616D656E7420757365643A20005374BA
:1003D0006174733A20002C204C6F6E676573742033
:1003E0006A6F623A2000546F74616C2074696D65A5
:1003F0003A200053746174733A20002C20466169DE
:100400006C65643A20002C2046696E6973686564E7
:100410003A20005072696E74733A2000537461740C
:10042000733A20000402FF01F801F101E3016F6655
:10043000660044454255473A0020573A0054484523
:10044000524D414C5F50524F54454354494F4E001A
:100450004155544F5245504F52545F53445F53548B
:100460004154555300454D455247454E43595F5001
:10047000415253455200434153455F4C494748540C
:100480005F4252494748544E45535300544F4747E3
:100490004C455F4C494748545300534F46545741CD
:1004A00052455F504F574552004255494C445F50AA
:1004B000455243454E54004C4556454C494E475FC6
:1004C00044415441005A5F50524F424500415554F7
:1004D0004F4C4556454C005052494E545F4A4F428E
:1004E0000050524F4752455353004155544F5245C7
:1004F000504F52545F54454D5000564F4C554D454A
:100500005452494300454550524F4D0053455249BE
:10051000414C5F584F4E5F584F4646004649524D3A
:10052000574152455F4E414D453A4D61726C696E7F
:1005300020204649524D574152455F564552534936
:100540004F4E3A312E312E392E32382045585452E2
:10055000554445525F545950453A53696E676C652E
:10056000457874727564657220534F555243455FE8
:10057000434F44455F55524C3A68747470733A2F38
:100580002F636F64652E616C6570686F626A656366
:1005900074732E636F6D2F646966667573696F6E11
:1005A0002F4D41524C494E2050524F544F434F4CC7
:1005B0005F56455253494F4E3A312E30204D4143FC
:1005C00048494E455F545950453A4C756C7A426FD4
:1005D00074204D696E692045585452554445525F08
:1005E000434F554E543A3120555549443A333531ED
:1005F00034383762362D636139612D346331612DB2
:10060000383736352D6436363862316461363538E0
:10061000350A002F2F20007A5F6D61783A20007A2A
:100620005F6D696E3A2000795F6D61783A200079DC
:100630005F6D696E3A2000785F6D61783A200078CE
:100640005F6D696E3A20005265706F7274696E67F3
:1006500020656E6473746F70207374617475730AAF
:1006600000546F6F206661722066726F6D20726534
:10067000666572656E636520706F696E740A00202E
:100680005A00205900580020204D61783A2000205F
:100690005A00205900580020204D696E3A20004F22
:1006A0006E20004F666600536F667420656E64733B
:1006B000746F70733A200020466C6F773A200020E8
:1006C000643A0020693A0020703A00496E76616C05
:1006D00069642065787472756465720A0043290A3A
:1006E0000061626C656420286D696E2074656D70B0
:1006F0002000436F6C6420657874727564657320A4
:1007000061726520004B64200023646566696E6534
:100710002044454641554C545F004B6920002364FA
:100720006566696E652044454641554C545F004BF3
:1007300070200023646566696E6520444546415516
:100740004C545F00504944204175746F74756E6558
:100750002066696E69736865642120507574207421
:100760006865206C617374204B702C204B6920618C
:100770006E64204B6420636F6E7374616E747320BB
:1007800066726F6D2062656C6F7720696E746F2082
:10079000436F6E66696775726174696F6E2E680A61
:1007A00000504944204175746F74756E6520666110
:1007B000696C6564212074696D656F75740A004504
:1007C0003120544845524D414C2052554E415741DD
:1007D000590042454420544845524D414C20525501
:1007E0004E4157415900546865726D616C205275D5
:1007F0006E617761790045312048656174696E6783
:10080000206661696C656400426564206865617496
:10081000696E67206661696C65640048656174692A
:100820006E67206661696C656400504944204175BB
:10083000746F74756E65206661696C6564212054FF
:10084000656D706572617475726520746F6F206874
:100850006967680A00204B643A2000204B693A20FF
:1008600000204B703A20000A20436C617373696367
:1008700020504944200A002054753A2000204B752E
:100880003A2000206D61783A2000206D696E3A2090
:100890000020643A200020626961733A20005049C8
:1008A00044204175746F74756E65206661696C656E
:1008B00064212042616420657874727564657220D9
:1008C0006E756D6265720A00504944204175746FFF
:1008D00074756E652073746172740A0045455052D8
:1008E0004F4D204F4B0A003F4B2076616C756520C1
:1008F0006F7574206F662072616E67652028302DD9
:100900003130292E0A00416476616E6365204B3DCB
:100910000041637469766520457874727564657208
:100920003A2000496E76616C69642065787472754E
:100930006465720A00000020002300260029002CB4
:10094000002F00320000010000030106010901022E
:100950002569730025696D20256973002569682064
:1009600025696D2025697300256964202569682043
:1009700025696D2025697300256979202569642022
:100980002569682025696D2025697300486F6D69A8
:100990006E67206661696C656400656E717565756A
:1009A00065696E672022004C696E65204E756D6228
:1009B0006572206973206E6F74204C617374204CD3
:1009C000696E65204E756D6265722B312C204C610D
:1009D0007374204C696E653A20005072696E7465BC
:1009E000722073746F707065642064756520746F15
:1009F000206572726F72732E204669782074686564
:100A0000206572726F7220616E6420757365204D6F
:100A100039393920746F20726573746172742E20B5
:100A20002854656D706572617475726520697320F4
:100A300072657365742E2053657420697420616635
:100A40007465722072657374617274696E67290AC5
:100A5000004E6F20436865636B73756D2077697412
:100A600068206C696E65206E756D6265722C204C15
:100A7000617374204C696E653A2000636865636B2E
:100A800073756D206D69736D617463682C204C61A2
:100A90007374204C696E653A20004D31313000206E
:100AA000496E76616C6964206578747275646572EC
:100AB0002000000040C00000E0C0000000C00000B6
:100AC000224300003E4300001F431000C9021001F2
:100AD0002C014001220170011801B0010E01F0014A
:100AE00004015002FA00B002F0003003E600D00327
:100AF000DC009004D2007005C800A006BE0000080B
:100B0000B400B009AA00D00BA000600E96006011DE
:100B10008C000015820020197800C01D6E00A022F4
:100B20006400B0275A00902C500000314600E03499
:100B30003C0010383200903A2800603C1E00A03D76
:100B40001400803E0A00203F00006265640A002C09
:100B50002073797374656D2073746F707065642190
:100B6000204865617465725F49443A2000426564BB
:100B70002068656174696E67206661696C656400F0
:100B800048656174696E67206661696C65640045DB
:100B9000312048656174696E67206661696C6564BF
:100BA0000048656174696E67206661696C65640000
:100BB0004B494C4C45442E20001000AD0330016AD7
:100BC0000150022B0170030A019004F500B005E505
:100BD00000D006D800F007CE001009C500300ABECC
:100BE00000500BB700700CB100900DAB00B00EA61A
:100BF00000D00FA200F0109D001012990030139544
:100C0000005014920070158E0090168B00B017875C
:100C100000D0188400F0198100101B7E00301C7B6E
:100C200000501D7900701E7600901F7300B0207078
:100C300000D0216E00F0226B001024690030256680
:100C400000502663007027610090285E00B0295C88
:100C500000D02A5900F02B5600102D5400302E5190
:100C600000502F4E0070304B0090314800B032459C
:100C700000D0334200F0343E0010363B00303737AE
:100C8000005038330070392E00903A2900B03B23D1
:100C900000D03C1B00F03D1100103F0100F03F0070
:100CA000004531204572723A204D415854454D500F
:100CB000004572723A204D415854454D50204245EE
:100CC00044004D415854454D502074726967676522
:100CD000726564004531204572723A204D494E5488
:100CE000454D50004572723A204D494E54454D5085
:100CF00020424544004D494E54454D502074726980
:100D000067676572656400202F002042403A00202A
:100D1000403A000A0A426564204C6576656C2043BF
:100D20006F7272656374696F6E204D617472697859
:100D30003A00202B000A436F727265637465642069
:100D4000426564204865696768742076732E204286
:100D5000656420546F706F6C6F67793A0A00202BBE
:100D6000000A4265642048656967687420546F70A2
:100D70006F6772617068793A0A2020202B2D2D2D23
:100D8000204241434B202D2D2B0A2020207C202067
:100D90002020202020202020207C0A204C207C2085
:100DA000202020282B29202020207C20520A20458A
:100DB000207C20202020202020202020207C204952
:100DC0000A2046207C20282D29204E20282B29204F
:100DD0007C20470A2054207C202020202020202016
:100DE0002020207C20480A2020207C202020202831
:100DF0002D29202020207C20540A2020207C202007
:100E00002020202020202020207C0A2020204F2D60
:100E10002D2046524F4E54202D2D2B0A2028302CA9
:100E200030290A004D65616E206F662073616D7018
:100E30006C656420706F696E74733A200020643AA8
:100E4000200020623A200045716E20636F6566665F
:100E5000696369656E74733A20613A20003474687E
:100E60002070726F626520706F696E742C206469E7
:100E70007374616E63652066726F6D20706C616E55
:100E8000653A2000202844525952554E29004732D5
:100E900039204175746F20426564204C6576656C1D
:100EA000696E67003F20284C2C522C462C4229208A
:100EB0006F7574206F6620626F756E64732E0A0002
:100EC0003F50726F626520706F696E74732028598D
:100ED0002920697320696D706C61757369626C6536
:100EE0002028322D32292E0A003F50726F62652071
:100EF000706F696E74732028582920697320696D9A
:100F0000706C61757369626C652028322D32292EF0
:100F10000A003F2856296572626F7365206C6576FA
:100F2000656C20697320696D706C61757369626CA2
:100F3000652028302D34292E0A00205A3A2000201E
:100F4000593A200042656420583A20006F6B002017
:100F5000573A004D313133205300205A3A0020597E
:100F60003A0020436F756E7420583A0020453A00CD
:100F7000205A3A0020593A00583A003A004361702A
:100F80003A00205400205200416363656C65726131
:100F900074696F6E3A20500020643A0020693A006C
:100FA00020703A00426564204C6576656C696E6716
:100FB00020004661696C656420746F20656E616213
:100FC0006C6520426564204C6576656C696E670AC5
:100FD00000426564204C6576656C20436F727265D3
:100FE0006374696F6E204D61747269783A003A20BB
:100FF0000050726F6265205A204F666673657400F8
:101000003F5A206F7574206F662072616E6765208D
:10101000282D3220746F2035290A004E6F2063611D
:101020007365206C696768740A0020746F6F206CA8
:101030006F6E6720657874727573696F6E20707259
:101040006576656E7465640A0020636F6C64206564
:101050007874727573696F6E2070726576656E74E0
:1010600065640A002020506C616E6E657242756680
:1010700066657242797465733A2000204672656530
:10108000204D656D6F72793A2000436F6D70696C09
:1010900065643A204E6F7620203220323031380A93
:1010A00000207C20417574686F723A2028416C657D
:1010B0007068204F626A6563747320496E632E2CDA
:1010C000204C756C7A426F742047697420526570A9
:1010D0006F7369746F7279290A004E6F762020321F
:1010E000203230313831343A33333A303200204C08
:1010F00061737420557064617465643A2000312E08
:10110000312E390A004D61726C696E0020536F6692
:1011100074776172652052657365740A00205761A7
:10112000746368646F672052657365740A002042B7
:10113000726F776E206F75742052657365740A0044
:101140002045787465726E616C2052657365740A0F
:1011500000506F77657255700A0073746172740A7B
:1011600000205A3A0020593A0020583A00656E642F
:1011700073746F7073206869743A2000454550524B
:101180004F4D206461746173697A65206572726F76
:10119000722E0A00290A002062797465733B20636D
:1011A0007263200053657474696E67732053746FA3
:1011B000726564202800290A002062797465733BF7
:1011C0002063726320002073746F726564207365FE
:1011D0007474696E6773207265747269657665648C
:1011E000202800202863616C63756C617465642934
:1011F000210A0020213D2000454550524F4D2043FB
:101200005243206D69736D61746368202D202873CB
:10121000746F7265642920002053697A653A200052
:10122000496E6465783A2000204D61726C696E3DAC
:10123000563535290A0028454550524F4D3D004549
:101240004550524F4D2076657273696F6E206D69FF
:10125000736D61746368200024F4D43050C38E2011
:10126000C2A24017828B7011127A910D816CD90A3B
:10127000A861E108C7586607615143061E4B5D052A
:10128000C145A7041A411104093D9803713931037E
:101290004036DB0265339102D4305402802E1D02A9
:1012A000632CEE01752AC501B028A0011027810129
:1012B0008F2564012B244B01E0223401AC211F0156
:1012C0008D200D01801FFC00841EED00971DDF00A6
:1012D000B81CD200E61BC600201BBC00641AB2007A
:1012E000B219A8000A19A0006A189900D117910034
:1012F00040178B00B516840031167E00B3157900B7
:101300003A157300C7146F0058146A00EE13660094
:101310008813630025135E00C7125B006C12570030
:1013200015125400C111510070114F0021114B00D2
:10133000D61049008D1047004610440002104200AC
:10134000C00F4000800F3E00420F3C00060F3B00E4
:10135000CB0E3800930E37005C0E3500270E34009C
:10136000F30D3200C10D3100900D3000600D2E00E4
:10137000320D2D00050D2C00D90C2B00AE0C2900D0
:10138000850C29005C0C2700350C27000E0C26006C
:10139000E80B2400C40B2400A00B23007D0B2300CA
:1013A0005A0B2100390B2100180B2000F80A1F00EE
:1013B000D90A1E00BB0A1E009D0A1D00800A1D00DE
:1013C000630A1C00470A1B002C0A1B00110A1A00A2
:1013D000F7091A00DD091900C4091900AB09190041
:1013E000920917007B091800630917004C091600C1
:1013F00036091600200916000A091500F50815001F
:10140000E0081400CC081400B8081400A408140064
:10141000900813007D0812006B0813005808120092
:1014200046081200340811002308110012081100A8
:1014300001081100F0071000E0071000D0071000AD
:10144000C0071000B0070F00A107100091070E00A1
:1014500083070F0074070F0065070E0057070E0083
:1014600049070E003B070D002E070E0020070D0058
:1014700013070D0006070D00F9060C00ED060D0020
:10148000E0060C00D4060C00C8060C00BC060C00DC
:10149000B0060C00A4060B0099060C008D060B008C
:1014A00082060B0077060B006C060B0061060A0033
:1014B00057060B004C060A0042060A0038060A00CE
:1014C0002E060A0024060A001A060A001006090061
:1014D00007060A00FD050900F4050900EB050900EF
:1014E000E2050900D9050900D0050900C705090072
:1014F000BE050900B5050800AD050800A5050900F1
:101500009C050800940508008C0508008405080067
:101510007C050800740508006C05070065050800D7
:101520005D050700560508004E0507004705070042
:101530004005080038050700310507002A050700A7
:10154000230507001C050600160507000F05070008
:101550000805060002050700FB040600F504070065
:10156000EE040600E8040600E2040700DB040600BF
:10157000D5040600CF040600C9040600C304060013
:10158000BD040600B7040600B1040500AC04060063
:10159000A6040600A00405009B04060095040500AF
:1015A000900406008A0405008504050080040600F6
:1015B0007A04050075040500700405006B0405003D
:1015C00066040500610405005C040500570405007D
:1015D000520405004D0405004804050043040500BD
:1015E0003E0404003A0405003504050030040400FC
:1015F0002C04050027040400230405001E04040035
:101600001A04040016040500110404000D0404006B
:10161000090405000404040000040400FC030400A1
:10162000F8030400F4030400F0030400EC030400D6
:10163000E8030400E4030400E0030400DC03040006
:10164000D8030400D4030400D0030400CC03040036
:10165000C8030300C503030024F404D9201BC40CF1
:101660005C0E9804C4095F0265077101F405F90076
:10167000FB04B30048048700C10369005803550008
:1016800003034500BE023A008402310053022A00DF
:101690002902250004022000E4011C00C8011900F1
:1016A000AF011700980114008401130071011000AC
:1016B0006101100051010E0043010D0036010B00C5
:1016C0002B010B0020010B00150109000C01090082
:1016D00003010800FB000800F3000800EB0007000E
:1016E000E4000600DE000600D8000600D200060076
:1016F000CC000500C7000500C2000500BD000400C5
:10170000B9000400B5000400B1000400AD000400FD
:10171000A9000400A5000300A20003009F0004002C
:101720009B00030098000300950002009300030053
:10173000900003008D0002008B000300880002006F
:101740008600020084000300810002007F00020086
:101750007D0002007B00020079000200770001009A
:1017600076000200740002007200010071000200A5
:101770006F0002006D0001006C0002006A000100B1
:1017800069000200670001006600010065000100B9
:1017900064000200620001006100010060000100BD
:1017A0005F0002005D0001005C0001005B000100C1
:1017B0005A000100590001005800010057000100C3
:1017C00056000100550001005400010053000000C4
:1017D00053000100520001005100010050000100BF
:1017E0004F0001004E0000004E0001004D000100BE
:1017F0004C0001004B0000004B0001004A000100BA
:1018000049000100480000004800010047000100B5
:1018100046000000460001004500000045000100B0
:1018200044000100430000004300010042000000AA
:1018300042000100410000004100010040000100A1
:101840003F0000003F0001003E0000003E0001009C
:101850003D0000003D0001003C0000003C00000095
:101860003C0001003B0000003B0001003A0000008A
:101870003A00010039000000390001003800000082
:101880003800000038000100370000003700010078
:101890003600000036000000360001003500000070
:1018A0003500000035000100340000003400000065
:1018B0003400010033000000330000003300010059
:1018C0003200000032000000320001003100000050
:1018D0003100000031000100300000003000000045
:1018E000300001002F0000002F0000002F0000003A
:1018F0002F0001002E0000002E0000002E0001002D
:101900002D0000002D0000002D0000002D00010022
:101910002C0000002C0000002C0000002C00010016
:101920002B0000002B0000002B0000002B0001000A
:101930002A0000002A0000002A0000002A000100FE
:1019400029000000290000002900000029000000F3
:1019500029000100280000002800000028000000E5
:1019600028000000280001002700000027000000D8
:1019700027000000270000002700010026000000CB
:1019800026000000260000002600000026000100BE
:1019900025000000250000002500000025000000B3
:1019A00025000000250001002400000024000000A4
:1019B0002400000024000000240001002300000097
:1019C000230000002300000023000000230000008B
:1019D000230000002300010022000000220000007C
:1019E000220000002200000022000000220001006E
:1019F0002100000021000000210000002100000063
:101A00002100000021000000210001002000000052
:101A10002000000020000000200000002000000046
:101A20002000000020000000200001001F00000036
:101A30001F0000001F0000001F0000001F0000002A
:101A40001F0000001F0001001E0000001E0000001B
:101A50001E0000001E000000C23100001C26000015
:101A6000F4190000D80F0000EB080000C0040000CB
:101A7000750200004001000048617264636F646594
:101A8000642044656661756C742053657474696E76
:101A90006773204C6F616465640A00282300002886
:101AA00023000064000000E80300000000964300EB
:101AB00000964300000041000020420000C942009F
:101AC00000C9420000C844004050443A0A0020289F
:101AD0006D6D2900204500205A0020204D393037F7
:101AE00020580053746570706572206D6F746F724A
:101AF0002063757272656E74733A0A0020204D3946
:101B00003030204B004C696E656172204164766113
:101B10006E63653A0A0020204D383531205A005A4C
:101B20002D50726F6265204F6666736574002044A5
:101B30000020490020204D33303420500020440044
:101B400020490020204D333031205000504944209E
:101B500073657474696E67733A0A0020204D3432DD
:101B6000302053004175746F20426564204C6576C7
:101B7000656C696E673A0A00205A002059002020DF
:101B80004D323036205800486F6D65206F666673A1
:101B900065743A0A00204500205A00205900205858
:101BA0000020540020530020204D323035204200C8
:101BB00020453C6D61785F655F6A65726B3E002011
:101BC000583C6D61785F785F6A65726B3E20593C66
:101BD0006D61785F795F6A65726B3E205A3C6D611A
:101BE000785F7A5F6A65726B3E00416476616E630E
:101BF00065643A20423C6D696E5F7365676D656E22
:101C0000745F74696D655F75733E20533C6D696EDA
:101C10005F66656564726174653E20543C6D696EF3
:101C20005F74726176656C5F666565647261746528
:101C30003E0020540020520020204D3230342050ED
:101C400000416363656C65726174696F6E2028750D
:101C50006E6974732F7332293A20503C7072696E2A
:101C6000745F616363656C3E20523C72657472619F
:101C700063745F616363656C3E20543C747261768B
:101C8000656C5F616363656C3E0A00204500205A05
:101C90000020590020204D3230312058004D61780D
:101CA000696D756D20416363656C65726174696F00
:101CB0006E2028756E6974732F7332293A0A0020DA
:101CC0004500205A0020590020204D323033205842
:101CD000004D6178696D756D20666565647261742B
:101CE00065732028756E6974732F73293A0A002072
:101CF0004500205A0020590020204D39322058003C
:101D000053746570732070657220756E69743A0A39
:101D10000020204D3230302044300A0020204D3247
:101D200030302044002044697361626C65640A00AD
:101D300046696C616D656E742073657474696E6755
:101D4000733A002020473231202020203B0052658A
:101D500073656E643A20002042002050006F6B00D3
:101D6000627573793A2070617573656420666F726D
:101D700020696E7075740A00627573793A2070611B
:101D80007573656420666F7220757365720A0062F0
:101D90007573793A2070726F63657373696E670A41
:101DA000004B494C4C45442E20004B494C4C206381
:101DB000617573656420627920746F6F206D75633F
:101DC0006820696E6163746976652074696D652049
:101DD0002D2063757272656E7420636F6D6D616E18
:101DE000643A20005072696E7465722068616C7488
:101DF00065642E206B696C6C28292063616C6C65AE
:101E000064210A00000040C000003E4300001F4360
:101E10000000F0410000F04100000041000000001F
:101E20005761726E696E673A20486F6D696E672000
:101E300042756D702044697669736F72203C203161
:101E40000A000202040000A0400000A040000000C0
:101E500040000025430000454300002143FF0101ED
:101E60004D6963726F737465707320756E6176610E
:101E7000696C61626C650A0045303A20005A3A206C
:101E800000593A2000583A20004D53312C4D53321E
:101E90002050696E730A004572726F722077726902
:101EA00074696E6720746F20454550524F4D210A6A
:101EB00000556E6B6E6F776E20636F6D6D616E6433
:101EC0003A20220000000A0B02090C0D0E0807033D
:101ED00004010000000000000000000000000000FD
:101EE00000000000000000000000000000000000F2
:101EF00012111000000000000000000000000000AF
:101F00000000000000000000000050726F62696E67
:101F100067206661696C65640A00205A3A200020D7
:101F2000593A200042656420583A200020666972C0
:101F300073740A005A0059005800486F6D652000FC
:101F40006563686F3A004572726F723A00453120DE
:101F5000544845524D414C2052554E41574159002D
:101F600042454420544845524D414C2052554E4123
:101F700057415900546865726D616C2052756E61ED
:101F80007761790000002200250028002B002E0038
:101F90003100340002010000050108010B010000BE
:101FA0002100240027002A002D0030003300010109
:101FB0000000040107010A010505050507050808D9
:101FC0000808020202020A0A0808040404040101C3
:101FD00001010101010103030303030303030407D8
:101FE00007070C0C0C0C0C0C0C0C0202020206066F
:101FF0000606060606060B0B0B0B0B0B0B0B010262
:10200000102020080810204010204080020102010A
:1020100008040201010204081020408080402010C2
:10202000080402018004020180402010080402011B
:102030000804020101020408102040800102040883
:102040001020408074A011241FBECFEFD1E2DEBF6C
:10205000CDBF00E00CBF13E0A0E0B2E0ECE6F2E69A
:1020600001E00BBF02C007900D92A231B107D9F772
:102070002EE0A2E1B3E001C01D92A63CB207E1F759
:1020800010E1C3E2D0E100E006C021970109802FF2
:10209000FE010E94EEB0C232D10780E00807A9F726
:1020A0000E94E0740C9434B10C9400002F923F9283
:1020B0004F925F926F927F928F929F92AF92BF9258
:1020C000CF92DF92EF92FF920F931F93CF93DF9304
:1020D000CDB7DEB7C759D1090FB6F894DEBF0FBE32
:1020E000CDBFCD56DF4F8883C359D04021E0209328
:1020F000600D8091F40D8D3411F40C949D1984358C
:1021000011F40C94D229873411F00C94152A809183
:10211000F20D9091F30D8A31910509F426C6B4F4BD
:10212000843091053CF482309105C4F597FF2FC0AF
:102130000C9499198430910509F4E2C50C9711F0BB
:102140000C9499190E948B580C94172A8E31910582
:1021500011F40C948D1944F48C31910509F49CC64A
:102160000CF407C60C9453198B35910511F40C949B
:1021700091198C35910511F40C9495198A359105B6
:1021800011F00C949919109217030C94172A80914E
:102190001F0281110C94242A0C94172A20911F02EB
:1021A000222311F40C94172A11E0029709F010E091
:1021B0000E949F3482E50E949334882309F442C12F
:1021C0000E9419346B017C014090100E5090110E4A
:1021D0006090120E7090130E8091140E9091150E57
:1021E000A091160EB091170E8AAB9BABACABBDABFA
:1021F0002091A40D3091A50D4091A60D5091A70DF1
:102200002EAB3FAB48AF59AF8091A80D9091A90D6F
:10221000A091AA0DB091AB0D8AAF9BAFACAFBDAF93
:1022200020E030E0A901C701B6010E94AEA98823D1
:1022300009F44CC5A30192016EA97FA988AD99AD9F
:102240000E94AEA981110DC02AA93BA94CA95DA984
:102250006AAD7BAD8CAD9DAD0E94AEA9882309F41B
:1022600035C520E030E0A901C701B6010E94AEA942
:10227000881F8827881F18130BC020E030E040E833
:102280005FE32E962CAF3DAF4EAF5FAF2E970AC0E7
:1022900080E090E0A0E8BFEB2E968CAF9DAFAEAF94
:1022A000BFAF2E97A30192016EA97FA988AD99AD0A
:1022B0000E9411AE26966CAF7DAF8EAF9FAF269772
:1022C0002AA93BA94CA95DA96AAD7BAD8CAD9DAD9A
:1022D0000E9411AE2A966CAF7DAF8EAF9FAF2A974A
:1022E00026962CAD3DAD4EAD5FAD2697CA01B90126
:1022F0000E9413AA4B015C012A962CAD3DAD4EAD58
:102300005FAD2A97CA01B9010E9413AA9B01AC01D3
:10231000C501B4010E9412AE0E947DB022966CAF3E
:102320007DAF8EAF9FAF229720E030E040E05FE3CB
:102330000E9413AA4B015C01A7019601C701B601D7
:102340000E9413AA6B017C01A5019401C501B4018F
:102350000E9413AA9B01AC01C701B6010E9411AEF5
:102360000E947DB09B01AC012E966CAD7DAD8EAD13
:102370009FAD2E970E9413AA4B015C012EA93FA985
:1023800048AD59ADC301B2010E9412AE20E030E069
:1023900040E05FE30E9413AA6B017C012A966CADBA
:1023A0007DAD8EAD9FAD2A97905822962CAD3DAD58
:1023B0004EAD5FAD22970E94EEAE9B01AC01C50110
:1023C000B4010E9413AA9B01AC01C701B6010E948F
:1023D00012AEA30192010E9411AE6B017C012AADE5
:1023E0003BAD4CAD5DAD6AA97BA98CA99DA90E94AE
:1023F00012AE20E030E040E05FE30E9413AA2B0120
:102400003C0122962CAD3DAD4EAD5FAD2297269698
:102410006CAD7DAD8EAD9FAD26970E94EEAE9B015B
:10242000AC01C501B4010E9413AA9B01AC01C30118
:10243000B2010E9412AE2AA93BA94CA95DA90E9433
:1024400011AE14C089E40E949334882329F00E94BD
:1024500019346B017C0103C0C12CD12C76018AE4B4
:102460000E9493348823D9F00E9419346AAF7BAF5D
:102470008CAF9DAF20E030E0A901C701B6010E94FA
:10248000AEA981111AC020E030E0A9016AAD7BAD90
:102490008CAD9DAD0E94AEA981110FC017C420E084
:1024A00030E0A901C701B6010E94AEA9882309F452
:1024B0000DC41AAE1BAE1CAE1DAEA701960150583E
:1024C0002AAB3BAB4CAB5DAB8AAD9BADACADBDAD10
:1024D000B0588EAB9FABA8AFB9AFCA01B9010E948B
:1024E00013AA4B015C012EA93FA948AD59ADCA0101
:1024F000B9010E9413AA9B01AC01C501B4010E945D
:1025000012AE0E947DB06A966CAF7DAF8EAF9FAF6A
:102510006A972091100E3091110E4091120E509139
:10252000130E22962CAF3DAF4EAF5FAF2297A7019F
:10253000960122966CAD7DAD8EAD9FAD22970E9427
:1025400012AE2E966CAF7DAF8EAF9FAF2E9780915F
:10255000140E9091150EA091160EB091170E26969E
:102560008CAF9DAFAEAFBFAF26972AAD3BAD4CADA4
:102570005DADBC01CD010E9412AE6E966CAF7DAF19
:102580008EAF9FAF6E972091A40D3091A50D409115
:10259000A60D5091A70D2A962CAF3DAF4EAF5FAF61
:1025A0002A972E962CAD3DAD4EAD5FAD2E972A9657
:1025B0006CAD7DAD8EAD9FAD2A970E9411AE6B01C3
:1025C0007C018091A80D9091A90DA091AA0DB091C8
:1025D000AB0D62968CAF9DAFAEAFBFAF62976E96FC
:1025E0002CAD3DAD4EAD5FAD6E97BC01CD010E94EF
:1025F00011AE4B015C012091180E3091190E4091E3
:102600001A0E50911B0E66962CAF3DAF4EAF5FAFCA
:1026100066976091AC0D7091AD0D8091AE0D90916B
:10262000AF0D0E9411AE2B013C018091B00D909135
:10263000B10DA091B20DB091B30DA6968CAF9DAF28
:10264000AEAFBFAFA69720911C0E30911D0E4091EA
:102650001E0E50911F0EA2962CAF3DAF4EAF5FAF36
:10266000A297A70196016AA97BA98CA99DA90E949E
:1026700013AAAA966CAF7DAF8EAF9FAFAA97A501A4
:1026800094016EA97FA988AD99AD0E9413AA9B0100
:10269000AC01AA966CAD7DAD8EAD9FADAA970E94A0
:1026A00012AEAA966CAF7DAF8EAF9FAFAA97A50171
:1026B00094016AA97BA98CA99DA90E9413AA4B0128
:1026C0005C01A70196016EA97FA988AD99AD0E9412
:1026D00013AA9B01AC01C501B4010E9411AEAA96D8
:1026E0002CAD3DAD4EAD5FADAA970E9485AE6B019E
:1026F0007C0120E030E0A9010E94AEA987FF0AC05A
:102700002BED3FE049EC50E4C701B6010E9412AE48
:102710006B017C01112351F02BED3FE049EC50E4BB
:10272000C701B6010E9411AE6B017C0120E030E0D0
:10273000A901C701B6010E94AEA9811128C02A963D
:102740002CAD3DAD4EAD5FAD2A9722966CAD7DAD03
:102750008EAD9FAD22970E94AEA9811118C06296DE
:102760002CAD3DAD4EAD5FAD629726966CAD7DADA7
:102770008EAD9FAD26970E94AEA9811108C05BED7A
:10278000C52E5FE0D52E59ECE52E50E4F52EA701BD
:1027900096016A966CAD7DAD8EAD9FAD6A970E9435
:1027A00013AA4B015C0120E030E0A901C301B20192
:1027B0000E94AEA98823C9F0A5019401C501B40106
:1027C0000E9413AA4B015C01A3019201C301B20153
:1027D0000E9413AA9B01AC01C501B4010E9412AE74
:1027E0000E947DB04B015C010DC020E030E0A901EA
:1027F000C501B4010E9438B087FF04C0B7FAB09495
:10280000B7F8B0942FE632E143E85AE3C501B401CA
:102810000E94AEA987FF02C00C94172AC501B4011B
:102820000E9487AF0E945BAF1B01672B19F4222423
:102830002394312CB10180E090E00E94B2A94B01B9
:102840005C019B01AC01C701B6010E94EEAE22966D
:102850006CAF7DAF8EAF9FAF2297A5019401C301EE
:10286000B2010E94EEAE6A966CAF7DAF8EAF9FAFA5
:102870006A97A2962CAD3DAD4EAD5FADA297A696E0
:102880006CAD7DAD8EAD9FADA6970E9411AEA5013A
:1028900094010E94EEAEA6966CAF7DAF8EAF9FAF57
:1028A000A69722962CAD3DAD4EAD5FAD2297CA01E5
:1028B000B9010E9413AA20E030E040E05FE30E94EB
:1028C00013AA9B01AC0160E070E080E89FE30E94E6
:1028D00011AE62966CAF7DAF8EAF9FAF629766967A
:1028E0008CAD9DADAEADBFAD669789879A87AB873E
:1028F000BC87A2962CAD3DAD4EAD5FADA2972D87A6
:102900003E874F87588B60910C0270910D02072E05
:10291000000C880B990B0E94B4A9209159023091A8
:102920005A0240915B0250915C020E9413AA2AE075
:1029300037ED43E25CE30E9413AA6AA77BA78CA74A
:102940009DA70E94333B9B01AC0128533F4F4F4F43
:102950005F4F66962CAF3DAF4EAF5FAF66974AA80C
:102960005BA86CA87DA841E050E028965FAF4EAF11
:10297000289759E123965FAF239728962EAD3FAD58
:1029800028972215330509F446C10E948D440E9400
:10299000333BDC01CB0166962CAD3DAD4EAD5FAD5A
:1029A0006697821B930BA40BB50BB7FD10C00E945A
:1029B000333B9B01AC0128533F4F4F4F5F4F66960F
:1029C0002CAF3DAF4EAF5FAF66970E94EB9723965B
:1029D0003FAD2397315023963FAF2397332309F41C
:1029E00045C062962CAD3DAD4EAD5FAD62976EA910
:1029F0007FA988AD99AD0E9413AA6B017C01229634
:102A00002CAD3DAD4EAD5FAD2297B201C3010E942A
:102A100013AAA70196010E9412AE7B018C01629657
:102A20002CAD3DAD4EAD5FAD6297B201C3010E94CA
:102A300013AA4B015C0122962CAD3DAD4EAD5FADAE
:102A400022976EA97FA988AD99AD0E9413AA9B0118
:102A5000AC01C501B4010E9411AE2B013C01C701BC
:102A6000D8018EAB9FABA8AFB9AF57C028964EAD7B
:102A70005FAD2897BA0180E090E00E94B2A922964B
:102A80002CAD3DAD4EAD5FAD22970E9413AA4B0118
:102A90005C010E94EBAE6B017C01C501B4010E9498
:102AA00073B04B015C01A70196016AA97BA98CA9AF
:102AB0009DA90E9413AA2B013C01A50194016AADB6
:102AC0007BAD8CAD9DAD0E9413AA9B01AC01C301EF
:102AD000B2010E9412AE2B013C01A50194016AA92A
:102AE0007BA98CA99DA90E9413AA4B015C01A70197
:102AF00096016AAD7BAD8CAD9DAD0E9413AA9B0182
:102B0000AC01C501B4010E9411AE6EAB7FAB88AFC2
:102B100099AF59E123965FAF23979201A3012E96B7
:102B20006CAD7DAD8EAD9FAD2E970E9412AE6983C8
:102B30007A838B839C832EA93FA948AD59AD6E96AD
:102B40006CAD7DAD8EAD9FAD6E970E9412AE6D8364
:102B50007E838F8398876A962CAD3DAD4EAD5FAD79
:102B60006A9769857A858B859C850E9412AE6987F4
:102B70007A878B879C87A6962CAD3DAD4EAD5FAD19
:102B8000A6976D857E858F8598890E9412AE6D8788
:102B90007E878F87988BCE0101960E94EB9AE090FA
:102BA00012031AA21BA21CA21DA289819A81AB81C9
:102BB000BC818E8B9F8BA88FB98F8D819E81AF81B9
:102BC000B8858A8F9B8FAC8FBD8F89859A85AB85A1
:102BD000BC858E8F9F8FA8A3B9A3AE01425E5F4FC5
:102BE000BE01665E7F4FCE0146960E94A273CE0163
:102BF00082966C018E01065D1F4F9E01235F3F4F41
:102C0000AE01425E5F4FBE01665E7F4F0C970E9431
:102C10002262811151C0E09012031EA21FA218A6C9
:102C200019A68091A40D9091A50DA091A60DB0912B
:102C3000A70D8E8B9F8BA88FB98F8091A80D909137
:102C4000A90DA091AA0DB091AB0D8A8F9B8FAC8F6F
:102C5000BD8F8091AC0D9091AD0DA091AE0DB09156
:102C6000AF0D8E8F9F8FA8A3B9A3AE01425E5F4FB9
:102C7000BE01665E7F4FCE0146960E94A273DE01C2
:102C800096966D018E01065D1F4F20EB3DE0AE0173
:102C9000425E5F4FBE01665E7F4FCE0146960E9448
:102CA000226280E1E4EAFDE0A0E1BEE001900D9245
:102CB0008A95E1F70C94172A2896EEADFFAD289778
:102CC00031962896FFAFEEAF289757CEE6E4FFE1A6
:102CD00084918F010F5F1F4F882321F00E948D7414
:102CE000F801F6CFE3E4F2E084918F010F5F1F4F0C
:102CF000882311F40C94172A0E948D74F801F4CFE4
:102D000080E50E949334882329F00E94D9336B0117
:102D10007C0103C0C12CD12C760183E50E94933441
:102D2000882361F00E94193420E030E04AE754E43F
:102D30000E9413AA0E945BAF6B017C010E94367255
:102D40000E94333BC60ED71EE81EF91E0E94333B7D
:102D5000DC01CB018C199D09AE09BF09B7FD02C08A
:102D60000C94172A0E94EB97F1CF20931F020C942A
:102D7000172A0E9440A281110C94172A80E090E04B
:102D8000A0E2B1E489839A83AB83BC8380E090E0C6
:102D9000A4E3B3E48D839E83AF83B88780E090E0A3
:102DA000A0EAB1E489879A87AB87BC8780E50E9457
:102DB0009334882319F00E94E93301C060E080E079
:102DC00090E0A8ECB2E48EA39FA3A8A7B9A780E0E7
:102DD00090E0A0EAB0E48AA39BA3ACA3BDA36130BA
:102DE00019F0623039F029C0BE016E5D7F4FCE010F
:102DF000099644C029853A854B855C856091180EFB
:102E00007091190E80911A0E90911B0E0E9412AEB5
:102E10006B017C0120E030E04FE153E40E94AEA959
:102E200087FD06C0C12CD12C3FE1E32E33E4F32E05
:102E3000CE8ADF8AE88EF98E1CC0A090180EB09062
:102E4000190EC0901A0ED0901B0EE984FA840B85DF
:102E50001C859501A601B701C8010E9438B018165B
:102E600014F075018601C701D8018E8B9F8BA88F46
:102E7000B98FBE016E5D7F4FCE0146960E946131D3
:102E8000AE014A5D5F4FBE016B5F7F4FCE01019681
:102E90000E9440310C94172A8091DF04877087309C
:102EA00071F48FE40E949334882319F00E940A344D
:102EB00003C08FE40E944C3481110C94172A0E94A5
:102EC00036723091F80C27963FAF279780E00E942A
:102ED00095330E94FE2F11E01093DE0488E50E94D6
:102EE0004C348AAB89E50E944C34382E8AE50E9426
:102EF0004C34082F4AA9411105C0311005C0282EB5
:102F0000212605C0311002C0212C01C0282E80E1ED
:102F1000E0E1FEE0A4EABDE001900D928A95E1F7C0
:102F2000211002C0002319F082E00E940E9682E573
:102F30000E949334882361F00E9419346B017C0154
:102F400020E030E0A9010E94AEA9882381F106C0EB
:102F5000C12CD12C20E8E22E20E4F22E211006C054
:102F60005AA9511103C0332009F416C1C092AC0D07
:102F7000D092AD0DE092AE0DF092AF0D2091180EF3
:102F80003091190E40911A0E50911B0EC701B601D7
:102F90000E9438B018165CF419821A821B821C82B7
:102FA000BE016F5F7F4F8CEA9DE00E94613121106E
:102FB0000EC08AA9882309F405C1311008C080E039
:102FC0000E940E96222011F40C947B2EE2C01092E7
:102FD000140E1092150E1092160E1092170E1092DB
:102FE000100E1092110E1092120E1092130E0E94DB
:102FF0004E33EDE5FEE194912B969FAF2B97E1E5E3
:10300000FEE185909590A590B490E5E5FEE1C59030
:10301000D590E590F490A7019601C501B4010E94F6
:1030200038B018162CF4A5019401C701B60104C0EC
:10303000A7019601C501B4010E94EEAE2B013C012F
:10304000E4E1FEE125913591459154912EAB3FABE2
:1030500048AF59AFE0E1FEE185919591A591B4911A
:103060008AAF9BAFACAFBDAFBC01CD010E94AEA992
:1030700087FD0AC01EA99FA99EAFA8AD2396AFAF3A
:103080002397B9ADBEAB09C01AADEBADEEAFFCAD49
:103090002396FFAF23972DAD2EABA3019201C30161
:1030A000B2010E9413AA20E030E040E85FE30E94F2
:1030B00012AE0E947DB09B01AC01612F7EAD2396C4
:1030C0008FAD23979EA90E9413AA6AA37BA38CA30A
:1030D0009DA3EEE5FEE1149120E030E040EC5FE3DB
:1030E000C701B6010E9413AA6B017C01612F110F69
:1030F000770B880B990B0E94B4A99B01AC01C70107
:10310000B6010E9413AA69837A838B839C8320E093
:1031100030E040EC5FE3C501B4010E9413AA6B01EB
:103120007C012B963FAD2B97632F330F770B880BCA
:10313000990B0E94B4A99B01AC01C701B6010E9482
:1031400013AA6E8B7F8B888F998FAE014E5D5F4F78
:10315000BE016F5F7F4FCE0146960E9440310E94B4
:1031600039361092140E1092150E1092160E1092FF
:10317000170E1092100E1092110E1092120E109245
:10318000130E21101CCFBAA9B1110C94782E332044
:1031900019F081E00E940E960E944E331091DD04DA
:1031A0001092DE041092DD04C12CD12C90EAE92E9D
:1031B00090E4F92EC982DA82EB82FC82211018C0D9
:1031C0000C949B2E3110E5CF0E944E331091DD04FC
:1031D0001092DE041092DD0480E090E0A0EAB0E4FA
:1031E00089839A83AB83BC83002311F40C94912EC2
:1031F00080E090E0ADE1B3E48E8B9F8BA88FB98F18
:10320000BE016F5F7F4FCE0146960E94613180E024
:1032100090E0A0EAB0E489839A83AB83BC83211059
:103220000BC0311009C08091140E9091150EA09121
:10323000160EB091170E04C080E090E0A9E3B3E44D
:103240008E8B9F8BA88FB98F21100CC04AA941117A
:1032500009C08091100E9091110EA091120EB091A4
:10326000130E04C080E090E0A0EAB0E48AA39BA320
:10327000ACA3BDA3AE014F5F5F4FBE016A5E7F4F3F
:10328000CE0182960E9440311093DE041093DD043B
:1032900027968FAD27970E9495330E94E52F0E94B5
:1032A0003F5C0C94172A80E00E94953313E001E004
:1032B0000093E00424982C9A149A0E94C648109215
:1032C000E004249A2C9814988091F80C882351F0EB
:1032D0008091F80C882369F087ED92E00E94449772
:1032E0000C94172A87E093E00E944497115001F74D
:1032F000EFCFEEEEF2E084918F010F5F1F4F882336
:1033000021F00E948D74F801F6CF88E692E00E94C9
:10331000449789E592E00E94BB970E942E610C942D
:10332000172A209317030C94172A0E945B600C94B1
:10333000172A0E9442A50C94172A8091F20D9091B1
:10334000F30D8B39910509F4EDC30CF0ACC08C354D
:10335000910509F4C0C40CF05DC08C34910509F4EA
:1033600029C28CF58231910509F465C484F497FF74
:1033700002C00C94CF29823091050CF45EC14197B4
:1033800011F00C94CF290E94AC9A0C94172A8A321F
:10339000910509F46CC18B34910509F4BCC14F97B8
:1033A00011F00C94CF290E943F3B6E8B7F8B888F4E
:1033B000998FBE016F5F7F4FCE0146960E942337E3
:1033C000E0E4FFE13EC18235910509F42BC4B4F479
:1033D0008E34910509F4F6C10CF4F0C181359105E4
:1033E00011F00C94CF290E9409420E94467210925B
:1033F0000E0410920D0400E010E0FDC38435910529
:1034000009F419C40CF412C48535910509F448C4B3
:103410000C94CF298137910509F47AC314F58B36C2
:10342000910509F4D6C364F48936910509F474C38F
:103430000CF0B1C38836910509F4C5C20C94CF29AC
:103440008E36910509F4E0C28F36910509F4EFC27A
:103450008D36910511F00C94CF290E94FD5D0C94DE
:10346000172A8637910509F423C56CF48337910533
:1034700009F4C0C40CF4B8C48537910511F40C9458
:10348000172A0C94CF298837910509F42BC60CF420
:103490005CC58937910509F42CC68C38910509F46F
:1034A00045C30C94CF298E3551E0950711F40C9447
:1034B000E6280CF057C0833D910509F4C4C744F5D4
:1034C0008B3C910509F486C674F4883C910509F497
:1034D00016C6893C910509F45AC68E3B910511F038
:1034E0000C94CF2941C38D3C910509F47BC60CF4A3
:1034F00075C68E3C910511F00C94CF296CEFC62E49
:1035000062E0D62E71EEE72E74E0F72E10E0D7C6FB
:103510008D32B1E09B0711F40C94BF238CF48D3DE8
:10352000910511F40C941023823E910511F40C9432
:103530007E238C3D910511F00C94CF290C9403232C
:103540008F32F1E09F0711F40C94B42414F40C941E
:1035500060248033914011F00C94CF290E94E35AEB
:103560000C94172A843F41E0940711F40C94F82836
:103570009CF58139A1E09A0711F40C94EF28ACF482
:103580008336E1E09E0711F40C94E9288039F1E0DC
:103590009F0711F40C94EC288F35914011F00C9496
:1035A000CF290E94F4590C94172A843A31E09307EA
:1035B00011F40C94F5288C3A41E0940709F49BC669
:1035C0008239914011F00C94CF2980E00E94FA30AA
:1035D0000E943F5C0C94172A883FA1E09A0711F4DF
:1035E0000C940A296CF4863FE1E09E0711F40C94D8
:1035F000FB2814F00C94FE280E94F7950C94172ACF
:10360000843823E0920711F40C942C294CF4833570
:10361000934011F00C94CF290E94715A0C94172AF0
:103620008B3853E0950711F40C948329873E93401F
:1036300011F40C94BC290C94CF290E94C85F0C94FF
:10364000172A84918F010F5F1F4F882321F00E945A
:103650008D74F801F6CFBE016F5F7F4F85E793E071
:103660000E9424478AE00E948D740C94172A83E5F7
:103670000E949334882311F40C94172A0E94F93382
:10368000E82E80E50E949334811112C081E0E110A0
:1036900001C080E08093E004882329F024982C9ACC
:1036A000149A0C94172A249A2C9814980C94172A7C
:1036B00080E50E949334882339F00E94F933182F53
:1036C00087FF03C00C94172A1DE0E2E8F3E08DE2C7
:1036D0008E0F9491191729F031968E13FACF0C940E
:1036E000412BE6E4FFE184918F010F5F1F4F882398
:1036F00021F00E948D74F801F6CFEFEAF3E0849197
:103700008F010F5F1F4F882311F40C94172A0E941A
:103710008D74F801F4CF1091CB04113011F40C9496
:10372000172A123059F40E943F3B6093BF047093F4
:10373000C0048093C1049093C20418C01092C704BF
:103740001092C8041092C9041092CA041092C304C3
:103750001092C4041092C5041092C6041092BF04C3
:103760001092C0041092C1041092C20481E08093B0
:10377000CB040E94333B6093C7047093C8048093CA
:10378000C9049093CA04123011F40C94172A809142
:10379000CD049091CE0401969093CE048093CD04F5
:1037A0001092770D1092780D1092790D10927A0D7B
:1037B0000C94172A0E94723B0C94172A0E94863B95
:1037C0000C94172A83E50E949334811103C0ECE125
:1037D000F4E009C00E94E9336E347105C1F70E941C
:1037E00013370C94172A84918F010F5F1F4F882382
:1037F00021F00E948D74F801F6CFE3E1F4E08491AA
:103800008F010F5F1F4F882321F00E948D74F801F4
:10381000F6CF6091CD047091CE0480E090E04AE054
:103820000E94B978E6E0F4E084918F010F5F1F4FAA
:10383000882321F00E948D74F801F6CF6091CF04A7
:103840007091D00480E090E04AE00E94B978EBEFFC
:10385000F3E084918F010F5F1F4F882321F00E94B6
:103860008D74F801F6CF6091CD047091CE048091F3
:10387000CF049091D004681B790B8091CB048150C8
:1038800021E030E0823010F020E030E0621B730B6A
:1038900080E090E04AE00E94B9788AE00E948D744E
:1038A000E3EFF3E084918F010F5F1F4F882321F036
:1038B0000E948D74F801F6CF8091D1049091D204CA
:1038C000A091D304B091D4048E8B9F8BA88FB98F15
:1038D000BE016F5F7F4FCE0146960E942337E6EE12
:1038E000F3E084918F010F5F1F4F811105C0FE012E
:1038F00031967F018F0104C00E948D74F801F1CFD1
:10390000D8018D918D01882319F00E948D74F8CF14
:103910008091D5049091D604A091D704B091D80499
:103920008E8B9F8BA88FB98FBE016F5F7F4FCE01AB
:1039300046960E942337E6EDF3E084918F010F5FF6
:103940001F4F882321F00E948D74F801F6CFF701F4
:1039500081917F01882319F00E948D74F8CF8AE04D
:103960000E948D74EEECF3E084918F010F5F1F4F86
:10397000882321F00E948D74F801F6CFEEEBF3E07E
:1039800084918F010F5F1F4F882321F00E948D7457
:10399000F801F6CF20E030E04AE754E46091D90422
:1039A0007091DA048091DB049091DC040E94EEAE09
:1039B00042E00E9439798DE60E948D748AE00E946F
:1039C0008D740C94172A88E690E00E944D35811181
:1039D0000C94172A8091F20483FF02C00C94172ADA
:1039E00083E50E949334882311F40C94172A0E94D3
:1039F00019340E9456AF709303046093020480E070
:103A00000E94BF410C94172A8EE40E9493348823AD
:103A100011F40C94172A0E94E9336093270E7093D7
:103A2000280E8093290E90932A0E0C94172A83E572
:103A30000E944C34882359F083E50E9493348823F4
:103A400019F00E94F93301C080E08093F204E0E4B1
:103A5000FFE184918F010F5F1F4F882321F00E94A7
:103A60008D74F801F6CFE2E3F4E084918F010F5FEB
:103A70001F4F882321F00E948D74F801F6CF8091AA
:103A8000F2048823A1F184E2C82E84E0D82EE12C30
:103A9000F12C20E08091F20490E00E2C02C095956C
:103AA00087950A94E2F780FF17C0BB24B394B20E47
:103AB000222319F08CE20E948D74F6012591349135
:103AC000F901849189010F5F1F4F882321F00E9423
:103AD0008D749801F5CF2B2DFFEFEF1AFF0A32E01E
:103AE000C30ED11C45E0E416F104A1F60CC0EEE2D1
:103AF000F4E084918F010F5F1F4F882321F00E9413
:103B00008D74F801F6CF8AE00E948D740C94172A08
:103B10000E94D35D0C94172A0E94AB5F1092600D37
:103B20000C94C52E0E947D5F0C94172A8091F2049C
:103B300083FF02C00C94172A83E50E9493348823E4
:103B400011F40C94172A0E9419340E9456AF66395A
:103B5000710514F066E970E070930104609300044D
:103B60000E9475410C94172A8091F20483FF02C0D1
:103B70000C94172A83E50E9493342B968FAF2B97D2
:103B800081110C94552B82E50E94933481110C9481
:103B9000552B0C94172A80E50E949334811106C09E
:103BA00083E50E949334882361F006C00E94F933B4
:103BB00081110C94172AF4CF0E94E9336F3F7105ED
:103BC00010F06FEF70E070930E0460930D040C948E
:103BD000172A80E50E949334811106C010920E04CA
:103BE00010920D040C94172A0E94E933672B11F0F0
:103BF0000C94172AF3CF62E370E080E090E00E941B
:103C0000F93A0E948D440F5F1F4F0331110599F758
:103C100062E370E080E090E00E94F93A0E948D44F7
:103C20000C94172A109216030C94172A81E08093A3
:103C300016030C94172A83E50E9493348823A1F07D
:103C40000E94193420E030E04AE754E40E9413AAAD
:103C50000E945BAF609351027093520280935302B3
:103C6000909354020C94172A88E50E944C348111D9
:103C70000C94CE2C89E50E944C3481110C94CE2CEE
:103C80008AE50E944C3481110C94CE2C85E40E946C
:103C90004C3481110C94CE2C0E9446720C94172A3D
:103CA00083E50E944C34882311F40C94172A0E9457
:103CB000193420E030E04AE754E40E9413AA0E943D
:103CC0005BAF6093730D7093740D8093750D90933B
:103CD000760D0C94172AACEFCA2EA2E0DA2EB1E4CE
:103CE000EB2EBDE0FB2E10E0D6018D916D010E9400
:103CF0004C34882309F46DC0133009F063C00E946E
:103D000019344B015C0120E030E040EA51E40E94AC
:103D1000AEA987FF4EC0A501940160914D0D709131
:103D20004E0D80914F0D9091500D0E94EEAE2B01E3
:103D30003C019B01AC016091050D7091060D8091D5
:103D4000070D9091080D0E9413AA6093050D7093C2
:103D5000060D8093070D9093080DA30192016091C9
:103D60003D0D70913E0D80913F0D9091400D0E9450
:103D700013AA60933D0D70933E0D80933F0D909379
:103D8000400D6091E7067091E8068091E9069091F8
:103D9000EA060E94B2A9A30192010E9413AA0E94FE
:103DA0005BAF6093E7067093E8068093E906909313
:103DB000EA0680924D0D90924E0DA0924F0DB0925A
:103DC000500D07C00E941934F7016083718382830C
:103DD00093831F5FF4E0EF0EF11C143009F084CFE1
:103DE0000E94928E0C94172A0E9436720E943F5CA9
:103DF0000C94172AECE1F5E084918F010F5F1F4FBF
:103E0000882321F00E948D74F801F6CF60E08CE0E9
:103E100095E00E94FB5B61E085E095E00E94FB5B22
:103E200061E08AEF94E00E94FB5B61E08AEE94E03F
:103E30000E94FB5B60E081EE94E00E94FB5B61E02E
:103E400087ED94E00E94FB5B61E08DEC94E00E94C2
:103E5000FB5B61E085EC94E00E94FB5B61E087EB3B
:103E600094E00E94FB5B60E089EA94E00E94FB5BC7
:103E700060E08AE994E00E94FB5B60E08CE894E0FB
:103E80000E94FB5B60E086E794E00E94FB5B61E0E0
:103E900085E694E00E94FB5B60E080E594E00E9490
:103EA000FB5B61E08DE394E00E94FB5B0C94172ABE
:103EB0000091F00D1091F10D83E0D12C40E0815084
:103EC000E9F0D8019C91292F2B7F2134C1F711965D
:103ED0002C912133A1F7913421F0953421F441E064
:103EE00002C0DD24D39498012E5F3F4F89012F5FDC
:103EF0003F4FF80190819032C9F3E1CF442369F03C
:103F0000E0E4FFE184917F012FEFE21AF20A8823B7
:103F100021F00E948D74F701F5CFDD2069F0E3E117
:103F2000F6E084917F013FEFE31AF30A882321F042
:103F30000E948D74F701F5CFD8018D918D018823F2
:103F400009F4E1CD0E948D74F7CF81E08093E00405
:103F500024982C9A149AE7E4F6E084918F010F5F7D
:103F60001F4F882321F00E948D74F801F6CFEFE3F4
:103F7000F6E084918F010F5F1F4F882321F00E948C
:103F80008D74F801F6CF1E9B03C005EE12E002C04F
:103F90000AEE12E0F80181918F01882319F00E9446
:103FA0008D74F8CF8AE00E948D74E7E3F6E0849187
:103FB0008F010F5F1F4F882321F00E948D74F8013D
:103FC000F6CF379B03C005EE12E002C00AEE12E006
:103FD000D8018D918D01882319F00E948D74F8CF3E
:103FE0008AE00E948D74EFE2F6E084918F010F5F0A
:103FF0001F4F882321F00E948D74F801F6CF1D9B7E
:1040000003C005EE12E002C00AEE12E0F801819151
:104010008F01882319F00E948D74F8CF8AE00E94E6
:104020008D74E7E2F6E084918F010F5F1F4F8823C4
:1040300021F00E948D74F801F6CF029B03C005EEBB
:1040400012E002C00AEE12E0D8018D918D018823A2
:1040500019F00E948D74F8CF8AE00E948D74EFE110
:10406000F6E084918F010F5F1F4F882321F00E949B
:104070008D74F801F6CF1C9B03C005EE12E002C060
:104080000AEE12E0F80181918F01882319F00E9455
:104090008D74F8CF8AE00E948D74E7E1F6E0849198
:1040A0008F010F5F1F4F882321F00E948D74F8014C
:1040B000F6CF019B03C005EE12E002C00AEE12E04B
:1040C000D8018D918D01882319F00E948D74F8CF4D
:1040D0008AE00E948D741092E004249A2C9814981F
:1040E0000C94172A81E08093DE048093DD040C9405
:1040F000172A1092DE041092DD040C94172A88EC23
:1041000090E00E944D3581110C94172A84E40E949E
:104110004C348823C1F10E94193411E020E030E0D2
:10412000A9010E94AEA9811101C010E01093550DA4
:10413000112349F10E941934E091FB03B4E0EB9F95
:10414000F0011124EF5AF24F6083718382839383CD
:1041500020E030E0A9016091510D7091520D8091E5
:10416000530D9091540D0E94AEA981110CC080E0B6
:1041700090E0A0E4B0E48093510D9093520DA09391
:10418000530DB093540D0E9428740C94172AE1E249
:10419000EE2EEDE0FE2E0CEF12E0F4E0DF2ED00E5E
:1041A000F80181918F010E944C34882351F00E94C4
:1041B00019340E945BAFD7016D937D938D939C93CF
:1041C0001397B4E0EB0EF11CD012EACF0E94168DCB
:1041D0000C94172A0E94D95B0C94172A0E94625BE8
:1041E0000C94172A82E40E944C34882351F00E94D8
:1041F000D9336093110D7093120D8093130D90932A
:10420000140D83E50E944C34882351F00E94193428
:1042100060930D0D70930E0D80930F0D9093100D04
:1042200084E50E944C34882351F00E941934609335
:10423000090D70930A0D80930B0D90930C0D88E57A
:104240000E944C34882351F00E9419346093F90C79
:104250007093FA0C8093FB0C9093FC0C89E50E9400
:104260004C34882351F00E9419346093FD0C7093F4
:10427000FE0C8093FF0C9093000D8AE50E944C3455
:10428000882351F00E9419346093010D7093020D40
:104290008093030D9093040D85E40E944C34882391
:1042A00011F40C94172A0E9419346093050D709331
:1042B000060D8093070D9093080D0C94172AF601B4
:1042C00081916F010E944C34882359F00E94193467
:1042D000D7016D937D938D939C931397812F0E94AB
:1042E0007F311F5FB4E0EB0EF11C133041F70E94E9
:1042F0003F5C0C94172A0E9440A281110C94172A4B
:1043000054E0852E5EE1952EE0E1FEE0FBABEAABEA
:104310009E012F5F3F4F59010DE51EE1190133E06A
:10432000300F3EABF4016591759185919491AAA9E6
:10433000BBA9CD90DD90ED90FD90BBABAAABA701E2
:1043400096010E9411AE2B013C0120E030E040EAD2
:1043500051EC0E9438B087FD10C020E030E040EA08
:1043600051E4C301B2010E94AEA9181634F0F10164
:1043700040825182628273820EC0F80184911816C5
:10438000B4F7F7FAF094F7F8F094D101CD92DD92FA
:10439000ED92FC921397D101CD90DD90ED90FD90C0
:1043A0001D0120E030E040EA51ECC701B6010E9457
:1043B00038B087FF03C0E6E4FFE10BC020E030E047
:1043C00040EA51E4C701B6010E94AEA91816CCF428
:1043D000F2CF84918F010F5F1F4F882321F00E943D
:1043E0008D74F801F6CFE1E6F6E084918F010F5F5E
:1043F0001F4F882311F40C94172A0E948D74F80122
:10440000F4CFB4E08B0E911C0F5F1F4FEEA9E013A9
:1044100089CF41EEE42E44E0F42E10E0F5018191C5
:104420009191A191B1915F01F70181939193A19332
:10443000B1937F01812F0E947F311F5F133071F78D
:104440000E943F5CF4C7E0E4FFE184918F010F5FBD
:104450001F4F882321F00E948D74F801F6CF83E569
:104460000E944C34882321F00E940A3480934F022A
:10447000E7EAF6E084918F010F5F1F4F882321F058
:104480000E948D74F801F6CF80914F02811103C014
:10449000E3EAF6E002C0EFE9F6E084918F010F5FF6
:1044A0001F4F882321F00E948D74F801F6CFE7E9B1
:1044B000F6E084918F010F5F1F4F882321F00E9447
:1044C0008D74F801F6CF2091F70D3091F80D4091E1
:1044D000F90D5091FA0D60910002709101028091E6
:1044E0000202909103020E9412AEAB01BC0185E969
:1044F00096E00E940D462091FB0D3091FC0D4091FD
:10450000FD0D5091FE0D60910402709105028091A5
:104510000602909107020E9412AEAB01BC0182E933
:1045200096E00E940D462091FF0D3091000E4091C3
:10453000010E5091020E6091080270910902809163
:104540000A0290910B020E9412AEAB01BC018FE8EF
:1045500096E00E940D46E7E8F6E084918F010F5F38
:104560001F4F882321F00E948D74F801F6CF20910F
:10457000F70D3091F80D4091F90D5091FA0D6091C1
:1045800043027091440280914502909146020E943C
:1045900012AEAB01BC0185E896E00E940D46209169
:1045A000FB0D3091FC0D4091FD0D5091FE0D609181
:1045B0004702709148028091490290914A020E94FC
:1045C00012AEAB01BC0182E896E00E940D4620913C
:1045D000FF0D3091000E4091010E5091020E60913E
:1045E0004B0270914C0280914D0290914E020E94BC
:1045F00012AEAB01BC018FE796E00E940D468AE047
:104600000E948D7414C783E50E949334882309F4B3
:104610000EC70E94E93370930D0260930C0207C726
:104620008DED90E00E944D35811101C783E50E9418
:1046300093348823D9F10091FB0310E00E94E93301
:10464000000F111FF801EB5DFD4F718360838091B6
:10465000FB0390E08C01000F111F000F111F980148
:10466000295D3D4F7901880F991FFC01EB5DFD4FDE
:1046700060817181072E000C880B990B0E94B4A9F0
:104680002AE037ED43E25CE30E9413AAF801EC5FF5
:10469000FB4F20813181428153810E9413AAD701AF
:1046A0006D937D938D939C931397C1C6E0E4FFE1D6
:1046B00084918F010F5F1F4F882321F00E948D741A
:1046C000F801F6CF85E40E948D748091FB03805D34
:1046D0000E948D74E091FB03F0E0EE0FFF1FEB5D95
:1046E000FD4F6081718187EB96E00E940B4785E268
:1046F0000E948D748AE00E948D7499C680E50E94A4
:104700004C34882309F493C60E94E9336B017C0181
:1047100083E50E949334882321F00E94E9338B01C2
:1047200002C00FEF1FEF98012F5F3F4F233031057D
:1047300008F07DC6D7FC7BC60E9436720F3FBFEFE4
:104740001B0731F00130110571F401E010E00DC0DC
:104750008C2D0E943B3931E020E0892B09F030E0BC
:10476000032F122F02C000E010E08C2D0E943B3975
:104770008017910709F45BC60E94EB97F6CF85E49A
:104780000E949334811110C080E50E944C3488232C
:1047900091F00E9419346093F40C7093F50C80939F
:1047A000F60C9093F70C07C00E94F933882361F34D
:1047B000E6E4FFE16EC089E40E944C34882381F076
:1047C0000E9419342CEA35EC47E25EE30E9413AAFA
:1047D0006093F00C7093F10C8093F20C9093F30CB7
:1047E00084E40E944C34882381F00E9419342CEA1E
:1047F00035EC47E25EE30E94EEAE6093EC0C709302
:10480000ED0C8093EE0C9093EF0CE0E4FFE18491CB
:104810008F010F5F1F4F882321F00E948D74F801D4
:10482000F6CF4091F40C5091F50C6091F60C70911C
:10483000F70C87EC96E00E940D462CEA35EC47E237
:104840005EE36091F00C7091F10C8091F20C90910C
:10485000F30C0E94EEAEAB01BC0183EC96E00E942B
:104860000D462CEA35EC47E25EE36091EC0C70916A
:10487000ED0C8091EE0C9091EF0C0E9413AAAB010D
:10488000BC018FEB96E00E940D468AE00E948D7479
:10489000CEC584918F010F5F1F4F882321F00E94A6
:1048A0008D74F801F6CFEBECF6E084918F010F5F89
:1048B0001F4F882309F4BBC50E948D74F801F5CF02
:1048C00083E50E944C34182F882371F00E9419341C
:1048D0000E9456AF70932C0260932B0221E0672B4D
:1048E00009F020E020930F0480E50E944C348823D7
:1048F00059F020912B0230912C02232B11F00E94B1
:104900000A3480930F0493C5111191C5E0E4FFE1CF
:1049100084918F010F5F1F4F882321F00E948D74B7
:10492000F801F6CF80910F04811103C064EF72E0AB
:1049300002C067EE72E082EF96E00E942447609129
:104940002B0270912C0281EE96E00E940B47EDED58
:10495000F6E084918F010F5F1F4F882309F467C52C
:104960000E948D74F801F5CF85E40E94933488236A
:1049700021F00E94E9337B0102C0E12CF12C83E499
:104980000E949334882331F00E94E933E1966FAF9F
:10499000E19704C045E0E1964FAFE19785E50E94BD
:1049A0009334882319F00E940A3403C085E50E94DD
:1049B0004C34ED968FAFED97F7FC07C0812C912C0E
:1049C000A6E1AA2EA3E4BA2E06C0812C912CFCE805
:1049D000AF2EF2E4BF2E83E50E949334882321F0AA
:1049E0000E9419344B015C01E114F10411F410929E
:1049F000FB03EAAA0E94333B2B013C015AA957FF53
:104A00000FC00CE310E080E090E0A0E0B1E4C358F8
:104A1000DF4F88839983AA83BB83CD57D0400EC0D4
:104A200004E110E020E030E040E551E4C358DF4FFE
:104A3000288339834A835B83CD57D04061E06E0D74
:104A4000623068F0EEE9F8E084918F010F5F1F4F4C
:104A5000882309F4ECC40E948D74F801F5CFE8ECCA
:104A6000F8E084917F013FEFE31AF30A882321F0F5
:104A70000E948D74F701F5CF0E9409424AA947FFB1
:104A800004C08FE78093FA0308C05AA9E52F550F99
:104A9000FF0BE750FC4F8FE78083C501B4010E94F4
:104AA00056AF072E000C880B990B0E94B4A96EAF6D
:104AB00023967FAF239727968FAF27972B969FAF8D
:104AC0002B979801A8EEB3E00E9402AECF57DF4FBC
:104AD000688379838A839B83C158D040DC01CB01F2
:104AE000840D951DA61DB71DC357DF4F888399837D
:104AF000AA83BB83CD58D04081E080934202E896E0
:104B00004CAE5DAE6EAE7FAEE897CB57DF4F4882BE
:104B100059826A827B82C558D040E4961FAEE497E2
:104B2000C757DF4F188219821A821B82C958D0409A
:104B30006F961FAE6F9790E467969FAF6797ACE153
:104B4000A396AFAFA397B6E4A796BFAFA797AB96D0
:104B50001FAEAB97AC961FAEAC97AD961FAEAD97A0
:104B6000AE961FAEAE9766961CAE1DAE1EAE1FAEC5
:104B7000669762961CAE1DAE1EAE1FAE6297C12C2C
:104B8000D12C76012FE730E040E050E02AAF3BAF78
:104B90004CAF5DAF7FE7872E912CA12CB12CEC960A
:104BA0001CAE1DAE1EAE1FAEEC9731E0E3963FAFDC
:104BB000E3976C961FAE1EAE6C9710E0212C312C43
:104BC00000E04AA9842F440F990BDC01A750BC4F89
:104BD000CF56DF4FB983A883C159D040880F991FA2
:104BE000880F991FFC01E05FFB4FE096FFAFEEAF2F
:104BF000E097E1962FADE197022E000C330BE29681
:104C00003FAF2EAFE29780914202882309F420C182
:104C10000E94333B6EAB7FAB88AF99AF8091E803C6
:104C2000882309F4F3C00E94C2423AA937FF09C0A1
:104C30001091FC032090FD033090FE030091FF03D0
:104C40000DC0E096AEADBFADE0971C9111962C90D3
:104C5000119712963C90129713960C91212F322D9A
:104C6000432D502FAB966FADAB97AC967FADAC9705
:104C7000AD968FADAD97AE969FADAE970E94AEA9A3
:104C800087FF0CC0AB961FAFAB97AC962FAEAC971F
:104C9000AD963FAEAD97AE960FAFAE97212F322DAA
:104CA000432D502F6F966FAD6F9767967FAD6797C7
:104CB000A3968FADA397A7969FADA7970E9438B0F4
:104CC000181664F46F961FAF6F9767962FAE6797AD
:104CD000A3963FAEA397A7960FAFA797E396BFAD56
:104CE000E3972EAD23963FAD239727964FAD279799
:104CF0002B965FAD2B97612F722D832D902FBB23A9
:104D000009F46AC00E9438B018160CF07FC02EA9B2
:104D10003FA948AD59AD2419350946095709CC5664
:104D2000DF4F288339834A835B83C459D040DA013B
:104D3000C90188589341A109B109B7FD67C0D501E0
:104D4000C4012AAD3BAD4CAD5DAD821B930BA40BF2
:104D5000B50B3AA9B595A7959795879537FF03C0E9
:104D60008093FA0307C0CF56DF4FE881F981C1591C
:104D7000D0408083CC56DF4F288139814A815B81C6
:104D8000C459D040EC962CAF3DAF4EAF5FAFEC971F
:104D90003EADAB963FAFAB9723964FAD2397AC9606
:104DA0004FAFAC9727965FAD2797AD965FAFAD97A6
:104DB0002B968FAD2B97AE968FAFAE972EA93FA9AE
:104DC00048AD59ADE8962CAF3DAF4EAF5FAFE89719
:104DD000E3961FAEE3971AC00E94AEA987FF16C0E4
:104DE0008EA99FA9A8ADB9ADE8962CAD3DAD4EAD4D
:104DF0005FADE897821B930BA40BB50BAC01BD0113
:104E0000485853416109710977FFEFC520E030E050
:104E100040EA51E46EAD23967FAD239727968FAD80
:104E200027972B969FAD2B970E9412AE9B01AC014A
:104E3000612F722D832D902F0E9438B018167CF4AC
:104E4000EAE2F8E084918F010F5F1F4F811103C0E8
:104E50000E940942ECC20E948D74F801F3CF8EA922
:104E60009FA9A8ADB9ADCB57DF4F288139814A81C1
:104E70005B81C558D040821B930BA40BB50BB7FDCB
:104E8000C0C00E9461468AE00E948D748EA99FA9CD
:104E9000A8ADB9AD8053984FAF4FBF4FCB57DF4F41
:104EA00088839983AA83BB83C558D040E4969FAD7D
:104EB000E49791117FC0C757DF4F288139814A811C
:104EC0005B81C958D040612F722D832D902F0E9495
:104ED00038B018160CF051C020E030E040E050E44B
:104EE000612F722D832D902F0E9412AEC757DF4F76
:104EF000688379838A839B83C958D0402EA93FA9B0
:104F000048AD59ADCF57DF4F88819981AA81BB81C8
:104F1000C158D040280F391F4A1F5B1FC357DF4FAE
:104F2000288339834A835B83CD58D040C358DF4FF1
:104F3000288139814A815B81CD57D0406EAD23965F
:104F40007FAD239727968FAD27972B969FAD2B97F5
:104F50000E9411AE9B01AC0191E0E4969FAFE497F3
:104F6000612F722D832D902F0E9438B018160CF4EB
:104F700048C0E4961FAEE49744C08EA99FA9A8AD8F
:104F8000B9ADC357DF4F288139814A815B81CD5844
:104F9000D040821B930BA40BB50BB7FD32C03AA9CE
:104FA0003F3F19F046EF57E002C048E058E06BE1A0
:104FB00078E024C020E030E040EA51E46EAD239672
:104FC0007FAD239727968FAD27972B969FAD2B9775
:104FD0000E9411AE9B01AC01612F722D832D902F89
:104FE0000E94AEA987FF0DC04AA94F3F19F04FEBB1
:104FF00057E002C042ED57E066EE77E08AA90E94D2
:10500000E1428EA99FA9A8ADB9AD880F991FAA1F2B
:10501000BB1FE8962CAD3DAD4EAD5FADE897821B52
:10502000930BA40BB50B84199509A609B709813810
:105030009F44A241B10568F0E1EAF7E084918F0155
:105040000F5F1F4F882309F403CF0E948D74F8016E
:10505000F5CF6C964EAD5FAD6C97E2968EAD9FAD81
:10506000E297841795070CF0CECDE4E4F7E0849145
:105070008F010F5F1F4F882321F00E948D74F8016C
:10508000F6CF9AA997FD03C003E013E002C008EF32
:1050900012E0B80183E397E00E942447B701A6011C
:1050A0008FE297E00E940D468AE00E948D74B8015D
:1050B0008EE197E00E94244762964CAD5DAD6EADE7
:1050C0007FAD62978AE197E00E940D468AE00E94D8
:1050D0008D74B80189E097E00E94244766964CAD34
:1050E0005DAD6EAD7FAD669785E097E00E940D46A1
:1050F0008AE00E948D74ED96AFADED97AA2309F476
:1051000096C1BAA9B7FF31C0C092E80CD092E90CA1
:10511000E092EA0CF092EB0C2CEA35EC47E25EE30D
:1051200062966CAD7DAD8EAD9FAD62970E9413AA65
:105130006093E40C7093E50C8093E60C9093E70C7D
:105140002CEA35EC47E25EE366966CAD7DAD8EAD44
:105150009FAD66970E94EEAE6093E00C7093E10CF9
:105160008093E20C9093E30C62C1C092F40CD09255
:10517000F50CE092F60CF092F70C2CEA35EC47E2D5
:105180005EE362966CAD7DAD8EAD9FAD62970E9481
:1051900013AA6093F00C7093F10C8093F20C90932F
:1051A000F30C2CEA35EC47E25EE366966CAD7DAD20
:1051B0008EAD9FAD66970E94EEAE6093EC0C70933F
:1051C000ED0C8093EE0C9093EF0C31C10E94395A94
:1051D0002EC10E94D9592BC10E94367228C181E08C
:1051E0000E94FA300E943F5C22C10E942C5D1FC1C8
:1051F0000E946E7F1CC10E94889419C183E50E94A1
:105200004C34882321F00E940A3491E089270E94BF
:105210000E900DC12093CF0C0E94DD791092CF0C1F
:10522000882309F404C1E0E4FFE184918F010F5F5A
:105230001F4F882321F00E948D74F801F6CFECED0A
:10524000F8E084918F010F5F1F4F882309F4EFC0AE
:105250000E948D74F801F5CF8BE40E94933488236B
:10526000B1F18BE40E9493348823B1F00E94193489
:105270006B017C0120E030E0A9010E9438B087FD7D
:1052800019C020E030E040E251E4C701B6010E94BD
:10529000AEA918167CF003C0C12CD12C76010E9457
:1052A0003672C092DC0CD092DD0CE092DE0CF092F3
:1052B000DF0CBDC0E7EEF8E084918F010F5F1F4F58
:1052C000882309F4B4C00E948D74F801F5CFE0E49E
:1052D000FFE184918F010F5F1F4F882321F00E940F
:1052E0008D74F801F6CF4091DC0C5091DD0C60918B
:1052F000DE0C7091DF0C86E099E00E940D468AE09A
:105300000E948D7494C088E50E944C348823F1F08B
:105310000E94E9338B01072E000C220B330B009304
:10532000D00C1093D10C2093D20C3093D30CDB0112
:105330002FEF30E00E94F6B020ED37E040E050E083
:105340000E94DCADB9018EE20E94323A8AE50E94E9
:105350004C34882329F00E94E93381E00E94259F84
:1053600085E40E944C34882309F461C00E94E9332B
:1053700082E00E94259F5BC081E080931F0283E54D
:105380000E949334882339F00E940A3481114FC05F
:105390000E94AC9B4CC083E50E944C34F7CF0E9426
:1053A00042A545C0F090F20D0E943672FF2029F10F
:1053B000E0E4FFE184918F010F5F1F4F882321F00C
:1053C0000E948D74F801F6CF84E50E948D746F2DD4
:1053D00070E080E090E04AE00E94B97880E20E94AC
:1053E0008D74E3E2F9E084918F010F5F1F4F8823F2
:1053F000F1F00E948D74F801F6CF10921203E0E4F0
:10540000FFE184918F010F5F1F4F882321F00E94DD
:105410008D74F801F6CF60E070E081E199E00E94C0
:105420000B478AE00E948D7402C00E9442A5109230
:10543000600DCD56DF4FE881C359D040EE2309F40B
:10544000A4C40E94409BA1C40E949F3484EA9DE0B2
:105450000E94EB9A8091F20483FDA5C0C090B00D2C
:10546000D090B10DE090B20DF090B30D20911C0ED4
:1054700030911D0E40911E0E50911F0EC701B601B6
:105480000E94AEA9882309F48EC060911004709127
:105490001104809112049091130420910F042111A2
:1054A00029C00E9456AF20912B0230912C02621726
:1054B000730704F5C0921C0ED0921D0EE0921E0ED2
:1054C000F0921F0EE0E4FFE184918F010F5F1F4F08
:1054D000882321F00E948D74F801F6CFE8E2F2E013
:1054E00084918F010F5F1F4F882321F00E948D74DC
:1054F000F801F6CF8090B00D9090B10DA090B20D54
:10550000B090B30D20911C0E30911D0E40911E0ED7
:1055100050911F0EC501B4010E9411AE6B017C01B8
:1055200020E030E0A9010E9438B087FF04C0F7FAFC
:10553000F094F7F8F094E091120324E0E29FF00178
:105540001124E95DFD4F2081318142815381C701E2
:10555000B6010E9413AA20E030E048E453E40E9420
:1055600038B0181604F580921C0E90921D0EA09271
:105570001E0EB0921F0EE0E4FFE184918F010F5FD9
:105580001F4F882321F00E948D74F801F6CFE9E0C7
:10559000F2E084918F010F5F1F4F882321F00E945A
:1055A0008D74F801F6CF60910C0270910D02072EF8
:1055B000000C880B990B0E94B4A9209159023091DC
:1055C0005A0240915B0250915C020E9413AA2AE0A9
:1055D00037ED43E25CE30E9413AA6AA37BA38CA38A
:1055E0009DA3E09012038091AC0D9091AD0DA09120
:1055F000AE0DB091AF0D4091A80D5091A90D6091E5
:10560000AA0D7091AB0D0091A40D1091A50D2091E4
:10561000A60D3091A70D09831A832B833C834E8BF3
:105620005F8B688F798F8AA79BA7ACA7BDA71EA6A3
:105630001FA618AA19AAAE01465D5F4FBE016A5E99
:105640007F4FCE0101960E94A273AE01425D5F4F73
:105650006A018E010E5D1F4F20EB3DE04450510961
:10566000BE016A5E7F4FCE0101960E94226280E1F8
:10567000E4EAFDE0A0E1BEE001900D928A95E1F739
:10568000D6CE812F0E94FBA06E2D812F0E946439FF
:10569000F12CB701812F0E94323A183009F0C7CEA1
:1056A000F0920E04E0920D04C2CE0E9419340E94C2
:1056B00056AF663971050CF06EC1709301046093AA
:1056C00000040E94754181E08093420280911203A0
:1056D0008093FB031EAA1FAA18AE19AE6E961CAECD
:1056E0001DAE1EAE1FAE6E971AAA2F961FAE2F9735
:1056F0005CE363965FAF63978CE16F968FAF6F97B4
:1057000096E467969FAF6797C12CD12C10E8E12EE5
:105710000FEBF02E812C912C5401609100047091BC
:105720000104072E000C880B990B0E94B4A9262EA9
:10573000172F082F392E262F372F482F592FB60114
:10574000C7010E94AEA98823E1F02091FC033091AB
:10575000FD034091FE035091FF03622D712F802FB6
:10576000932D0E94AEA9881F8827881F8AAB2B968D
:10577000AFAD2B97AA2349F0882339F080914202DC
:1057800056CE2C2C1D2D0E2D3F2C0E94333B6B0131
:105790007C01DC01CB016E962CAD3DAD4EAD5FAD15
:1057A0006E97821B930BA40BB50BB7FD3DC0D701C1
:1057B000C60188519C4FAF4FBF4F6E968CAF9DAFC7
:1057C000AEAFBFAF6E970E946146E9E3F4E084910B
:1057D0003F019FEF691A790A882321F00E948D7496
:1057E000F301F5CF81149104A104B104B9F0D501FE
:1057F000C40188519C4FAF4FBF4FBC01CD016C1904
:105800007D098E099F0928EE33E040E050E00E94B8
:10581000BAADCA01B9010E941F7903C08FE30E948B
:105820008D748AE00E948D740E94EB970E94333B36
:1058300060936F0D7093700D8093710D9093720D46
:10584000A091FC03AAAFB091FD03BEAFE091FE03AF
:105850002396EFAF2397F091FF032796FFAF27978B
:105860009D01AF01622D712F802F932D0E9411AEEB
:105870002B013C0120E030E0A9010E9438B087FFF5
:1058800004C077FA709477F8709420E030E040EA32
:1058900050E4C301B20181149104A104B10429F4BC
:1058A0000E94AEA987FF07C004C00E9438B0181636
:1058B00014F4460157012AA9222309F450C08EA9E5
:1058C0009FA9A8ADB9AD892B8A2B8B2B61F0D7018D
:1058D000C6012EA93FA948AD59AD821B930BA40B5D
:1058E000B50BB7FD3CC02AAD3EAD23964FAD239717
:1058F00027965FAD27972F966FAD2F9763967FAD55
:1059000063976F968FAD6F9767969FAD67970E946D
:1059100011AE20E030E040EC5FE30E94AEA987FDCD
:105920002DCFD701C601805A9541AF4FBF4F8EABE7
:105930009FABA8AFB9AF9AAD2F969FAF2F97AEADE3
:105940006396AFAF63972396BFAD23976F96BFAFB4
:105950006F972796EFAD27976796EFAF6797809180
:105960004202882309F40ACF81149104A104B104EE
:1059700029F4C22CD12EE02EF32CCFCEF8EECF1A84
:10598000F3E0DF0AE108F108C818D908EA08FB08C3
:10599000F7FEF4CEEECF66E970E08FCE0E9436724D
:1059A00088E57AD7882331F0179A8091DF048E7FBB
:1059B0008093DF0489E570D7882331F0169A8091AF
:1059C000DF048D7F8093DF048AE566D7882331F07A
:1059D000159A8091DF048B7F8093DF0485E45CD788
:1059E000882309F424CD149A22CD6C964EAD5FAD78
:1059F0006C97452B09F43AC1EC964CAC5DAC6EAC9F
:105A00007FACEC97480E591E6A1E7B1EEC962CAD9F
:105A10003DAD4EAD5FADEC97281B390B4A0B5B0BD0
:105A2000CA01B9012AAD3BAD4CAD5DAD0E94ABAD35
:105A3000A30192010E94DCADD501C401820F931F26
:105A4000A41FB51F84319105A105B105FCF04C01DF
:105A50005D018C3E9105A105B1052CF05BEE852E14
:105A6000912CA12CB12C40E884169104A104B1041E
:105A7000DCF08EEF90E0A0E0B0E088199909AA0967
:105A8000BB098AAF9BAFACAFBDAF12C044E1842E5F
:105A9000912CA12CB12C24E130E040E050E02AAF61
:105AA0003BAF4CAF5DAF04C08AAE9BAEACAEBDAEFB
:105AB000B501A40186E998E00E94E4464AAD5BADD9
:105AC0006CAD7DAD81E998E00E94E4466F964FADE4
:105AD0006F9767965FAD6797A3966FADA397A796ED
